:1000000000800020618B0000A98B0000AB8B0000FA
:1000100000000000000000000000000000000000E0
:10002000000000000000000000000000AD8B000098
:100030000000000000000000AF8B0000B18B00004A
:10004000B38B0000B38B000059610000B38B00003C
:10005000B38B000000000000B38B0000B38B0000E6
:10006000B38B0000B38B000009490000B38B000084
:10007000B38B0000B38B0000B38B0000B38B000088
:10008000B38B00000D560000B38B0000B38B000053
:10009000F5560000B38B0000398B0000B38B0000D5
:1000A000B38B0000B38B00000000000000000000D4
:1000B0000000000000000000000000000000000040
:1000C00010B5064C2378002B07D1054B002B02D02E
:1000D000044800E000BF0123237010BD6C00002025
:1000E000000000006090000008B5084B002B03D012
:1000F0000748084900E000BF07480368002B03D009
:10010000064B002B00D0984708BDC04600000000F9
:1001100060900000700000206C00002000000000D3
:10012000164B002B00D1144B9D46402292029A1A86
:10013000924600218B460F461348144A121A00F0CB
:1001400067F80F4B002B00D098470E4B002B00D0C8
:1001500098470020002104000D000D48002802D01F
:100160000C4800E000BF00F02DF82000290006F048
:10017000B1FE00F011F8C046000008000080002029
:1001800000000000000000006C000020BC120020F5
:100190000000000000000000084B10B5041C002BFC
:1001A00002D0002100E000BF054B1868836A002BD5
:1001B00000D09847201C00F033F8C0460000000033
:1001C000A08C000070B50E4B0E4D0024ED1AAD1042
:1001D0001E1CAC4204D0A300F35898470134F8E742
:1001E00008F050FD084B094D0024ED1AAD101E1CFF
:1001F000AC4204D0A300F35898470134F8E770BD2F
:1002000064000020640000206400002068000020DA
:10021000031C8218934202D019700133FAE7704729
:10022000FEE7C04670B50B4B9A78002A05D09C7F3C
:100230000422002C0CD0101C70BD0022D400A41A83
:10024000A4001D190126AE7018530A600022F2E7BF
:100250000122F3E7241200200A4B021C1988814274
:1002600004D0998B0520914209D070470022D1001B
:100270008A1A92009B1800229A700020F5E701224A
:10028000F5E7C0462412002010B50A4B021C18885E
:10029000904204D09C8B0520944207D010BD9878E2
:1002A0000128F7D100230B600020F7E79B7F012B8B
:1002B000F4D1F8E7241200201A4B021C198881425D
:1002C00018D0998981421ED0198B81421DD0998CFA
:1002D00081421CD0198E81421BD0998F81421AD045
:1002E0004821595A814218D05421595A0520914227
:1002F00015D07047002251008A1892009B180022E6
:100300009A700020F5E70122F5E70222F3E70322C5
:10031000F1E70422EFE70522EDE70622EBE70722EB
:10032000E9E7C0465C12002010B5264B021C188875
:10033000904218D0988990421AD0188B90421CD0C5
:10034000988C90421ED0188E904221D0988F904267
:1003500026D04820185A904228D054201C5A0520F4
:10036000944229D010BD98780128E3D1002314E0ED
:10037000987B0128E1D101230FE0987E0128DFD18D
:1003800002230AE02620185C0128DCD1032304E0C4
:100390003220185C0128D9D104230B600020E1E74A
:1003A0003E20185C0128D4D10523F6E74A20185CCA
:1003B0000128D2D10623F0E756229B5C012BD1D134
:1003C0000723EAE75C12002000B583B0064A01ABC0
:1003D00003F0A8FC002803D00021002205F052F809
:1003E000019803B000BDC0468800002000B583B06E
:1003F00001AA00F09DFB002803D00021002205F097
:1004000041F8019803B000BD70B584B06C46061C7D
:100410000D1C063402A8211C04F07CFF0028F9D131
:10042000029B291C18702388029A013B03930B4BF3
:1004300001321D60301C03AB03F03CFC002803D0EC
:100440000021002205F01EF8039902980131039162
:10045000034A89B204F072FF04B070BD8800002026
:10046000C903000030B585B06C46051C063402A8EF
:10047000211C04F04FFF0028F9D1029B03AA187039
:1004800023880299013B03930A4B0131281C1D600C
:1004900000F02CFB002803D00021002204F0F2FF22
:1004A0000399029801310391034A89B204F046FF8F
:1004B00005B030BD88000020ED03000010B50F4CE2
:1004C00082B000230193226801AB01F03BFA0028BF
:1004D00005D1019B0020002B09D102B010BD0021E5
:1004E000002204F0CFFF019B0020002BF5D0A08854
:1004F000FFF7B2FE0028F0D10198EEE7940000204B
:1005000000B583B0002301AA019300F0EFFC00289E
:1005100003D00021002204F0B5FF019803B000BD14
:1005200000B583B0002301AA019301F0B3F90028BC
:1005300003D00021002204F0A5FF019803B000BD04
:1005400000B583B0002301AA019300F01FFD00282D
:1005500003D00021002204F095FF019803B000BDF4
:1005600000B583B0002301AA019301F073F90028BC
:1005700003D00021002204F085FF019803B000BDE4
:1005800000B583B0002301AA019300F059FD0028B3
:1005900003D00021002204F075FF019803B000BDD4
:1005A000F0B5474680B41D1C86B00023061C884663
:1005B000171C0493059304AC03A8211C04F0AAFEA5
:1005C0000028F9D1039B18702388013B23801A4B24
:1005D0001D609E80002D14D0301C05A9FFF722FE5F
:1005E000002803D006B004BC9046F0BD059B134A1A
:1005F000D800C01A800080180430291C182208F086
:1006000038FB039B019401330093301C41463A1C94
:100610002B1C01F045F9002808D1049903980131F9
:100620000491074A89B204F089FEDBE70021002229
:1006300004F028FFF1E7C0469400002024120020B7
:10064000BD04000070B5002382B0061C0D1C019390
:1006500001AC6846211C04F05DFE0028F9D1009B26
:10066000291C18702388009A013B23800132301C1A
:10067000231C00F00BFC002803D00021002204F012
:1006800001FF0199009801310191034A89B204F0F8
:1006900055FE02B070BDC0460105000010B5002334
:1006A00082B0019301AC6846211C04F033FE00289F
:1006B000F9D1009B211C187023880098013B013060
:1006C000238001F0CDF8002803D00021002204F09F
:1006D000D9FE0199009801310191034A89B204F0D1
:1006E0002DFE02B010BDC04621050000F0B500236C
:1006F00085B0071C0E1C151C039303AC02A8211C1B
:1007000004F008FE0028F9D1029B311C18702388E0
:10071000381C013B2380029B009401332A1C00F00B
:10072000EBFB002803D00021002204F0ABFE03996C
:10073000029801310391034A89B204F0FFFD05B02C
:10074000F0BDC0464105000030B5002383B0051C54
:10075000019301AC6846211C04F0DCFD0028F9D1AE
:10076000009B221C187023880099013B0131281C32
:10077000238001F047F8002803D00021002204F074
:1007800081FE0199009801310191034A89B204F078
:10079000D5FD03B030BDC04661050000F0B50023B3
:1007A00085B0071C0E1C151C039303AC02A8211C6A
:1007B00004F0B0FD0028F9D1029B311C1870238889
:1007C000381C013B2380029B009401332A1C00F05B
:1007D000E3FB002803D00021002204F053FE03991C
:1007E000029801310391034A89B204F0A7FD05B0D4
:1007F000F0BDC0468105000000B583B001AA02F03B
:100800003FFB002803D00021002204F03BFE0198AA
:1008100003B000BD00B583B001AA01F073FE00284B
:1008200003D00021002204F02DFE019803B000BD8A
:1008300000B583B001AA01F095FE002803D0002185
:10084000002204F01FFE019803B000BD00B583B084
:1008500001AA02F051FC002803D00021002204F07C
:1008600011FE019803B000BDF0B5002385B0071C50
:100870000E1C151C039303AC02A8211C04F04AFDB6
:100880000028F9D1029B311C18702388381C013BC9
:100890002380029B009401332A1C02F0C3FA002833
:1008A00003D00021002204F0EDFD039902980131EC
:1008B0000391034A89B204F041FD05B0F0BDC04682
:1008C000F907000070B5002382B0061C0D1C0193CF
:1008D00001AC6846211C04F01DFD0028F9D1009BE5
:1008E000291C18702388009A013B23800132301C98
:1008F000231C01F0DBFD002803D00021002204F0BE
:10090000C1FD0199009801310191034A89B204F0B7
:1009100015FD02B070BDC0461508000070B500237B
:1009200082B0061C0D1C019301AC6846211C04F02A
:10093000F1FC0028F9D1009B291C18702388009A2B
:10094000013B23800132301C231C01F0E1FD002813
:1009500003D00021002204F095FD01990098013197
:100960000191034A89B204F0E9FC02B070BDC046AF
:100970003108000070B5002382B0061C0D1C0193E5
:1009800001AC6846211C04F0C5FC0028F9D1009B8D
:10099000291C18702388009A013B23800132301CE7
:1009A000231C02F05DFB002803D00021002204F08C
:1009B00069FD0199009801310191034A89B204F05F
:1009C000BDFC02B070BDC0464D08000000B583B04C
:1009D00001AA02F06BFF002803D00021002204F0DE
:1009E00051FD019803B000BD10B5084B84B003ACB5
:1009F0001A685B68009402F0C1FE002803D0002151
:100A0000002204F03FFD039804B010BD9C000020BC
:100A1000F0B5474680B41D1C84B0002380460F1CEF
:100A2000161C039303AC02A8211C04F073FC0028DD
:100A3000F9D1029B391C187023884046013B238062
:100A4000029B019401330093321C2B1C02F0E8FE40
:100A5000002803D00021002204F014FD039902981D
:100A600001310391034A89B204F068FC04B004BC6C
:100A70009046F0BDCD090000F0B5474680B41F1C7C
:100A800084B0002380460E1C151C039303AC02A8FF
:100A9000211C04F03FFC0028F9D1029B114A187078
:100AA00023881660013B2380029B5560013300932D
:100AB00001944046311C2A1C3B1C02F021FE0028F8
:100AC00003D00021002204F0DDFC039902980131DB
:100AD0000391054A89B204F031FC04B004BC90468D
:100AE000F0BDC0469C000020E909000010B5141CB0
:100AF00084B0002908D0002A06D012680923012AF0
:100B000004D8181C04B010BD0E23FAE70123039388
:100B100060230B70054B2268009303AB03F032F99E
:100B2000031EEED1039A2260EBE7C046813C000031
:100B300008B5131C602202F025FF08BDF8B5041C9F
:100B4000161C1D1C00280CD0002B0AD009200129DE
:100B500006D922786778002E07D01B68032B02D8AD
:100B6000F8BD0E20FCE7043B2B603F021743A01C9E
:100B70000239702F00D9BDE0614ABB00D3589F46AF
:100B8000321C2B1C02F098FE002E05D0002800D04D
:100B9000B2E037802B8873802B6804332B60DFE74B
:100BA000321C2B1C02F0AAFBEEE7321C2B1C02F0BD
:100BB00043FBE9E7321C2B1C02F0A4FAE4E7321CE9
:100BC0002B1C02F063FBDFE7321C2B1C02F0D2FA75
:100BD000DAE7321C2B1C02F0C9FBD5E7321C2B1CB8
:100BE00002F072F8D0E7321C2B1C01F0C3FECBE7F9
:100BF000321C2B1C02F0A2F8C6E7321C2B1C01F0A1
:100C0000F5FDC1E7321C2B1C01F0A4FFBCE7321C30
:100C10002B1C01F093FDB7E7321C2B1C01F028FEC2
:100C2000B2E7321C2B1C01F0A3FCADE7321C2B1CDD
:100C300001F0FEFFA8E7321C2B1C01F009FFA3E71F
:100C4000321C2B1C00F0BEFC9EE7321C2B1C00F05B
:100C50003DFB99E7321C2B1C00F06CFD94E7321C25
:100C60002B1C00F0F3F98FE7321C2B1C00F072FCF8
:100C70008AE7321C2B1C00F095FD85E7321C2B1CEB
:100C800000F072FB80E7321C2B1C00F083FA7BE73C
:100C9000321C2B1C00F046FA76E7321C2B1C00F0AD
:100CA0001FFC71E7321C2B1C00F0CEFC6CE7321CE1
:100CB0002B1C00F003FD67E7321C2B1C00F0B8FA78
:100CC00062E7321C2B1C00F0D3FB5DE7321C2B1CAF
:100CD00000F096FB58E7321C2B1C00F04DF853E750
:100CE000321C2B1C00F0A0F84EE7321C2B1C00F02D
:100CF00009F849E7052047E7002333804BE7C04662
:100D0000A48C0000F0B5474680B4041C82B00020DB
:100D10000E1C171C1D1C0190002C08D0002B06D0A7
:100D2000022906D8092002B004BC9046F0BD0E206E
:100D3000F9E7002A1BD01B680C20022BF3D90123F2
:100D4000138003235380201C9846131D01AA02F030
:100D500077FE3B1C0833201C311C01AA02F09CFECC
:100D6000019BB342DED143462B600020DBE7032327
:100D70002B600020D7E7C046F0B5474680B4051C7D
:100D800082B00E1C141C1F1C002836D0002A34D040
:100D9000002B32D0002300930323138010235380B1
:100DA000131D6A4602F03AFE002827D108231B19BA
:100DB000281C311C6A46984602F060FE00281DD1AE
:100DC00043460833281C311C6A4602F027FE0028DF
:100DD00014D1009B591CEB5C0091012B12D0E060F8
:100DE000A088FFF769FA002808D1009B0920B342C8
:100DF00004D110233B60002000E00E2002B004BCB0
:100E00009046F0BDA08801A9FFF78EFA0028F5D121
:100E1000019B5A00D318034A9B00D3185B68E36018
:100E2000DEE7C0465C120020F0B5474680B4051CE2
:100E300082B00E1C141C1F1C002821D0002A1FD0B9
:100E4000002B1DD000230193022313800523538020
:100E50009846131D01AA02F0E1FD002811D1231CC0
:100E60000833281C311C01AA02F008FE002808D112
:100E7000019B0920B34204D143463B60002000E0BF
:100E80000E2002B004BC9046F0BDC04670B586B0DE
:100E90001C1C6B46D8810E1C151C0E33002A07D073
:100EA000002C05D022680920002A03D106B070BDAD
:100EB0000E20FBE7012205927E222A70181C291CB5
:100EC000226805AB02F09AFD0028EFD1064B301CDA
:100ED0000093291C226805AB02F054FF0028E5D1DD
:100EE000059B2360E2E7C0461D20000008B5131CE7
:100EF0007E2202F047FD08BDF0B5474680B4051CD0
:100F000086B00E1C171C1C1C0E20002B11D00C9A36
:100F1000002A0ED0882202A802700C9A211C1368A5
:100F20000022984604921A1C04AB02F099FD002896
:100F300003D006B004BC9046F0BD114B281C0093B2
:100F4000211C424604AB02F01DFF0028F1D10D4BDD
:100F5000301C0093211C424604AB02F013FF002812
:100F6000E7D1094B381C0093211C424604AB02F028
:100F700009FF0028DDD1049B0C9A1360D9E7C04615
:100F8000D1190000712200002D22000008B5131CA9
:100F9000882202F0F7FC08BDF0B5474680B4161C65
:100FA0001C1C069D08D0002D06D02A68032A05D8EF
:100FB000092004BC9046F0BD0E20FAE78123607042
:100FC000000A2370A0702B68032BF1D90B1C5A1E4A
:100FD0009341DBB2E370002B2BD02A680D2AE7D9AE
:100FE0000B88082223711B0A6371A01D023107F0D0
:100FF00040FE1F23984620270F200E22331C591E27
:101000008B41DBB2A354002B10D02B68BB42CFD353
:1010100010222018311C07F02CFE337C381C5A0893
:10102000DB075200DB0F13434246A3542860002025
:10103000BFE715229046162705200422DEE7C046AA
:1010400008B5131C812202F09DFC08BDF0B547468F
:1010500080B4041C84B000200E1C171C1D1C0390BF
:10106000002C08D0002B06D00A2906D8092004B08D
:1010700004BC9046F0BD0E20F9E7002A4ED01A6855
:101080000C20292AF3D91B233B802A237B80201C98
:101090003B1D03AA02F0C2FC0028E8D1BB1D201CA6
:1010A000311C03AA00F0AEFC0028E0D13B1C201C40
:1010B000311C03AA0D3302F0E1FC0028D7D102ABAA
:1010C000201C311C03AA984602F0D8FC0028CED17F
:1010D00042461378B87B0122191C90431140021C30
:1010E0000A4306218A4394460620DA0818406346DC
:1010F00018430723D10003400B43BB733B1C0092F2
:101100000F33201C311C03AA02F022FD0028AED1AF
:10111000039AB242AAD12A232B60A8E72A232B6084
:101120000020A4E7F0B5474680B4041C82B000203C
:101130000E1C171C1D1C0190002C08D0002B06D083
:10114000022906D8092002B004BC9046F0BD0E204A
:10115000F9E7002A1AD01B680C20022BF3D91623BA
:10116000138003235380201C9846131D01AA02F00C
:1011700067FCBB1D201C311C01AA02F08DFC019BE9
:10118000B342DFD143462B600020DCE703232B6012
:101190000020D8E7F0B5051C83B000200F1C141CFC
:1011A0001E1C0090002D06D0002B04D0072904D867
:1011B000092003B0F0BD0E20FBE7002A31D0172331
:1011C00013802A235380281C131D6A4602F026FC34
:1011D0000028EED1A31D281C391C6A4600F0A2FD90
:1011E0000028E6D1A08801A9FFF74EF80028E0D139
:1011F000019B281CDA00D31A0C4A9B009B1804336D
:10120000391C6A4601F0D4F80028D2D1A088FFF733
:1012100023F80028CDD1009BBB42C9D12A233360DB
:10122000C7E72A2333600020C3E7C046241200200A
:10123000F0B5474680B4041C82B000200E1C171C79
:101240001D1C0190002C08D0002B06D0032906D8C5
:10125000092002B004BC9046F0BD0E20F9E7002A38
:101260002FD01B680C20092BF3D9122313800A23DB
:101270005380201C9846131D01AA02F0E1FBBB1D00
:10128000201C311C01AA02F0DBFB3B1C0833201C94
:10129000311C01AA02F0D4FB3B1C0A33201C311C78
:1012A00001AA02F0CDFB3B1C0C33201C311C01AA0F
:1012B00002F0C6FB019BB342CAD143462B6000201B
:1012C000C7E70A232B600020C3E7C046F0B54746B6
:1012D00080B4041C82B000200E1C171C1D1C019041
:1012E000002C08D0002B06D0032906D8092002B014
:1012F00004BC9046F0BD0E20F9E7002A2FD01B68F1
:101300000C20092BF3D91D2313800A235380201CA2
:101310009846131D01AA02F093FBBB1D201C311C33
:1013200001AA02F08DFB3B1C0833201C311C01AAD2
:1013300002F086FB3B1C0A33201C311C01AA02F080
:101340007FFB3B1C0C33201C311C01AA02F078FBF4
:10135000019BB342CAD143462B600020C7E70A2352
:101360002B600020C3E7C046F0B5474680B4041C9C
:1013700082B000200E1C171C1D1C0190002C08D0F0
:10138000002B06D0032906D8092002B004BC9046E1
:10139000F0BD0E20F9E7002A2DD01B680C20032B8E
:1013A000F3D91823138004235380201C9846131D5F
:1013B00001AA02F045FB019BBA79E11808780F23D6
:1013C0009A4318401043B8710978019AC0B20909CC
:1013D000090103400B430132BB710192FB1D201C2C
:1013E000311C01AA02F058FB019BB342CCD1434609
:1013F0002B600020C9E704232B600020C5E7C0460E
:10140000F0B5474680B4051C82B000200F1C161CA6
:101410001C1C0190002D0BD0002B09D0002A09D0F4
:101420001B680C20192B08D802B004BC9046F0BDF4
:101430000E20F9E71A232360F6E71A235380984613
:10144000281C131D01AA02F0E9FA0028ECD1B31DF3
:10145000281C391C01AA00F079FD0028E4D1019B69
:101460000920BB42E0D1434623600020DCE7C046B0
:10147000F0B5474680B4041C82B000200E1C171C37
:101480001D1C0190002C08D0002B06D0022906D884
:10149000092002B004BC9046F0BD0E20F9E7002AF6
:1014A0001AD01B680C20022BF3D9112313800323BD
:1014B0005380201C9846131D01AA02F0C1FABB1DDF
:1014C000201C311C01AA02F0E7FA019BB342DFD1D4
:1014D00043462B600020DCE703232B600020D8E785
:1014E000F0B5474680B4002582B0041C0F1C90461E
:1014F0001E1C0195002808D0002B06D0072906D80D
:10150000092002B004BC9046F0BD0E20F9E7002A85
:101510001CD01B680C20072BF3D9424615231380DF
:101520000825434604335580201C01AA02F088FA9E
:10153000019A4046A1180630062207F09AFB019B4B
:1015400006339F42DCD135600020DAE708233360A0
:101550000020D6E7F0B5474680B4041C82B00020D6
:101560000E1C171C1D1C0190002C08D0002B06D04F
:10157000022906D8092002B004BC9046F0BD0E2016
:10158000F9E7002A1AD01B680C20022BF3D91A2382
:10159000138003235380201C9846131D01AA02F0D8
:1015A0004FFABB1D201C311C01AA02F081FA019BDD
:1015B000B342DFD143462B600020DCE703232B60DE
:1015C0000020D8E7F0B5474680B4051C82B0002063
:1015D0000F1C161C1C1C0190002D0BD0002B09D0D9
:1015E000002A09D01B680C20092B08D802B004BCC3
:1015F0009046F0BD0E20F9E70A232360F6E71E238C
:1016000013800A2353809846281C131D01AA02F058
:1016100005FA0028EAD1F31D281C391C01AA00F0A4
:10162000F1F90028E2D1B31D281C391C01AA02F0EF
:1016300025FA0028DAD1019B0920BB42D6D14346C6
:1016400023600020D2E7C046F0B5474680B4051CB1
:1016500082B000200F1C141C1E1C0190002D08D00D
:10166000002B06D0032906D8092002B004BC9046FE
:10167000F0BD0E20F9E7002A1BD01B680C20152BAB
:10168000F3D91423138016235380281C9846131D66
:1016900001AA02F0D5F9A31D281C391C01AA00F0EB
:1016A00009FC0028E1D1019BBB42DDD143463360F8
:1016B000DBE7162333600020D7E7C046F0B5474686
:1016C00080B4041C82B000200E1C171C1D1C01904D
:1016D000002C08D0002B06D0062906D8092002B01D
:1016E00004BC9046F0BD0E20F9E7002A1DD01B680F
:1016F0000C20062BF3D9132313800723538098461D
:10170000201C131D01AA02F089F90028E7D1BB1D96
:10171000201C311C01AA00F0F9FC0028DFD1019B3C
:10172000B342DBD143462B60D9E707232B6000206F
:10173000D5E7C046F0B5474680B4051C82B000200E
:101740000F1C141C1E1C0190002D08D0002B06D06D
:10175000022906D8092002B004BC9046F0BD0E2034
:10176000F9E7002A19D01B680C20022BF3D90323B8
:101770005380281C9846131D01AA02F061F9A31D8D
:10178000281C391C01AA00F06FFE0028E3D1019B40
:10179000BB42DFD143463360DDE7032333600020E3
:1017A000D9E7C04670B5041C82B00020161C1D1C71
:1017B0000190002C06D0002B04D0032904D009206E
:1017C00002B070BD0E20FBE7002A18D01B680C2069
:1017D000022BF5D9192313805180131D201C0321DE
:1017E00001AA02F02DF9B31D201C032101AA02F069
:1017F00053F9019B032BE2D12B600020E0E7196035
:101800000020DDE7F0B5061C87B00C1C151C0E206F
:1018100000290DD0002A0BD0862202A82F68027062
:101820000022049204AB3A1C02F01AF9002801D0FD
:1018300007B0F0BD064B301C0093211C3A1C04ABD2
:1018400002F0A0FA0028F3D1049B2B60F0E7C04619
:101850007122000008B5131C862202F093F808BD1F
:1018600010B5031C84B00C1C0E20002B10D00029D6
:101870000ED0872269460A7000220292191C68461F
:10188000226802AB02F0ECF8002801D1029A226033
:1018900004B010BD08B5131C872202F073F808BD10
:1018A000F0B5474680B488B0161C0E9A6C466D465B
:1018B000E08169731F1C0E340D350E20002A10D0F4
:1018C0000F9B002B0DD07F2304A803700F9B0E9954
:1018D0001A680023069306AB904602F0C1F8002870
:1018E00003D008B004BC9046F0BD201C0E994246BF
:1018F00006AB02F083F80028F3D1281C0E9942466B
:1019000006AB02F0ADF80028EBD10C4B301C009375
:101910000E99424606AB02F035FA0028E1D1084B99
:10192000381C00930E99424606AB02F02BFA0028B1
:10193000D7D1069A0F9B1A60D3E7C0461D2000003E
:1019400001230000E0B586B0051C0F1C03921E1C8D
:10195000002813D0002B11D000230593009605A971
:101960003A1C7F2301F0E8FF002808D13368002BE0
:1019700007D0059BBB4212D0092000E00E2006B024
:10198000E0BD039B002BF9D0064B281C0093391CAB
:1019900005AA03AB02F010FA0028EAD0EFE7002016
:1019A000EDE7C046B123000070B51D68061C1C1C85
:1019B000521B09200F2A00D870BD48191022311C73
:1019C00007F057F92368002010332360F4E7C0467E
:1019D00038B51D681C1C521B0923062A01D8181C87
:1019E00038BD037806224B55236801332360CB189A
:1019F000411C181C07F03DF92368063323600023BF
:101A0000EDE7C04638B51568141C491B09220629A4
:101A100001D8101C38BD41190722181C07F029F9FC
:101A20002368002207332360F3E7C04670B51D68C2
:101A3000061C1C1C521B09200F2A00D870BD481917
:101A40001022311C07F015F92368002010332360A1
:101A5000F4E7C04638B51568141C491B09220F2944
:101A600001D8101C38BD41191022181C07F001F9CB
:101A70002368002210332360F3E7C046F0B54746E1
:101A800080B4051C0F1C141C984600280AD0002A9C
:101A900008D0116809267B1A0F2B05D8301C04BC0E
:101AA0009046F0BD0E26F9E741181022404607F097
:101AB000E0F82168103121607F1A062FEED94046E8
:101AC00010306918072207F0D4F82368002607337E
:101AD0002360E3E7F0B54F464646C0B4041C83B02C
:101AE0000D1C171C1E1C00290AD0002B08D00379DE
:101AF0000720082B06D903B00CBC90469946F0BDD0
:101B00000E20F8E7237B082BF5D8331C201D01F0AD
:101B1000A7FF002300932068331C291C3A1C02F005
:101B200031F92379002B13D01D4B002290469946A2
:101B3000424693002268291C98584B4600933A1C51
:101B4000331C02F01FF90122237990449845EFD30A
:101B5000201C291C3A1C331C0C3001F081FF00238F
:101B60000093A068331C291C3A1C02F00BF9237B5C
:101B7000002BC0D00B4A0023984691464246930062
:101B8000A268291C98584B4600933A1C331C02F05B
:101B9000F9F80122237B90449845EFD3ABE7C04688
:101BA000D1190000A9190000F8B546464F46C0B447
:101BB00080460E1C171C1C1C0E25002906D0002B6D
:101BC00004D018680925131A102B04D8281C0CBC43
:101BD00090469946F8BD08181022414607F049F88A
:101BE00023684146103323600A7C4046D207D20F57
:101BF000F25422681230B3180A7C19785208520045
:101C00000A431A7023683A1C01332360311C231CD9
:101C100001F0F4FE23688146FF1A072FD6D941460A
:101C2000F0181431082207F024F823684D460833D1
:101C30002360CBE7F0B5474680B480460D1C171CE7
:101C40001C1C00290AD0002B08D01B680926D21AB8
:101C50000F2A05D8301C04BC9046F0BD0E26F9E7CB
:101C6000C8181022414607F004F823681033236097
:101C7000FF1A062FEED941460A7C1131EA5420683A
:101C8000062201302060281806F0F3FF23680026A2
:101C900006332360DEE7C046F8B5051C0E1C141C95
:101CA0001F1C0E20002D06D0002A04D01168731AC4
:101CB0000F2B01D80920F8BD6918381C102206F036
:101CC000D8FF2368103323609E42F3D0E95C3B7C4D
:101CD0000122114093430B433B742168281C6B5C29
:101CE000397C5B085B000A401A433A742368311C54
:101CF000013323603B1C221C123301F08FFE0028AD
:101D0000D9D121680920761A072ED4D9381C14306D
:101D10006918082206F0ADFF23680020083323600D
:101D2000C9E7C046F0B557464E464546E0B4071CE5
:101D30001068141C82B00D1C1E1C0A1A052A06D835
:101D4000092002B01CBC90469946A246F0BD002B6B
:101D500000D1ADE0381C221C01F090FE0028F0D12B
:101D6000381C291C221C6B4601F088FE0028E8D193
:101D700069460B7803227078111C904319400122A8
:101D80009B08134090469A00031C0B430420834396
:101D900013437370226881469542D1D0381C291CA8
:101DA000221C01AB01F06AFE0028CAD1019BB07869
:101DB000414642461A4088431043022290439246CD
:101DC000019A590843461940930842461340490076
:101DD0009A00031C0B43484683431343B3702168A6
:101DE0008D42ADD0381C291C221C01AB01F046FEEF
:101DF0000028A6D1019BF078414642461A4088430C
:101E0000104352469043019A59084346194093089B
:101E1000424613409A004900031C0B434846834343
:101E20001343F370002F43D02268954200D187E717
:101E3000B95C3279012319409A430A43327122680E
:101E40000220B95C327949081940490082430A43AB
:101E500032712168D2B2785C042180081840800079
:101E60008A4302433271226809200132226095427E
:101E700000D166E7B85C727918409A4302437271E8
:101E800022685546B85C7279400818404000AA4361
:101E90000243727120683A5C0020920813409A0055
:101EA00073798B431343737123680133236048E7CD
:101EB0000E2046E7F0B50D1C1168071C141C83B0FA
:101EC0001E1C6A1A0920062A01D803B0F0BD791831
:101ED000181C072206F0CDFE2368381C0733236048
:101EE000331C291C221C083301F098FD0028ECD17A
:101EF000216809206B1A072BE7D9301C79180822B2
:101F00000A3006F0B6FE2368381C08332360291C0B
:101F1000221C6B4601F0B2FD0028D6D16B461A7820
:101F2000B47C01231D1C15409C4351082C4392088E
:101F300002251940AC43134049009A00231C0B436F
:101F400004218B431343B374BFE7C046F0B5141CA0
:101F50000D1C83B0216800221E1C6B461A70071CE2
:101F60006A1A062A02D8092003B0F0BD41180722D8
:101F7000301C06F07EFE2168073121606B1A062BAB
:101F8000F1D979180722F01D06F073FE2368381C7A
:101F900007332360291C221C6B4601F06FFD0028CB
:101FA000E2D16B461A78B17B0123181C104099438B
:101FB0005208014352000B401343B37323680233AA
:101FC0009D42D0D3331C1033381C291C221C01F035
:101FD00037FD236802339D42C5D3331C1233381CAE
:101FE000291C221C01F02CFD236802339D42BAD328
:101FF000331C381C1433291C221C01F021FD2368DA
:10200000092002339D42AFD3331C381C1633291CE0
:10201000221C01F015FD0020A6E7C046F0B547469A
:1020200080B4047890461D1CE2071E232340D20F83
:102030001343202282B014401C436A46071C1470CC
:10204000684642462B1C0E1C01F00AFD002803D0F6
:1020500002B004BC9046F0BD781C311C42462B1CDB
:1020600001F0FEFC0028F3D1B81C311C42462B1CA9
:1020700001F0F6FC0028EBD1002E37D0002D35D032
:102080002B6809209845E3D0FA78D207D20FF25492
:102090002A68F978B31802220A4019780A431A709C
:1020A0002A68F978B31804220A4019780A431A708A
:1020B0002B6801332B609845CAD03A790020D207AB
:1020C000D20FF2542A683979B31802220A401978DB
:1020D0000A431A702B683A79F618042313403278B1
:1020E000134333702B6801332B60B1E70E20AFE749
:1020F00010B5041C247882B06846A4070730A40FEA
:10210000047001F0ADFC02B010BDC046F0B54F4602
:102110004646C0B483B01F1C6B46051C0E1C141C25
:1021200001F0ACFC002804D003B00CBC90469946EA
:10213000F0BD6846037801210A1C1A4038789146A0
:102140005A08884688430A404946084302215200FB
:102150008843104389461C221C21194090435B0987
:10216000424613405A01031C0B4320218B43134367
:102170003B70281C7B1C311C221C01F07FFC0028BA
:10218000D2D1BB1C281C311C221C01F077FC00287A
:10219000CAD1002D47D0002C45D0236809209E428B
:1021A000C2D0EA5C43461A40FB7841468B43134356
:1021B000FB702368EA5CFB7852080A4049465200EB
:1021C0008B431343FB7022684346A95C04228908B1
:1021D0001940FB78890093430B43FB70236801335C
:1021E00023609E42A0D0E95C3B7940460140834396
:1021F0000B433B712368E95C3B7949080140484641
:10220000490083430B433B7123684046E95C3B79BB
:1022100089080140890093430B433B7123680020E8
:102220000133236080E70E207EE7C046F8B5071C27
:102230000E1C151C1C1C01F0E1FB002800D0F8BD91
:10224000B81C311C2A1C231C01F0D8FB0028F6D135
:10225000381D311C2A1C231C01F0D0FB0028EED1B4
:10226000B81D311C2A1C231C01F0C8FBE7E7C0463F
:10227000F0B5071C83B00D1C161C1C1C002907D0D0
:10228000002B05D01B680920934203D103B0F0BD99
:102290000E20FBE73A78D207D20FCA5422688B1877
:1022A000397802220A4019780A431A702368291CD7
:1022B00001332360114B321C00937868231C01F01A
:1022C00061FD0028E2D1381C0830291C321C231C77
:1022D00001F094FB0028D9D1381C0A30291C321C8B
:1022E000231C01F08BFB0028D0D1381C291C321C88
:1022F000231C0C3001F082FBC8E7C046D51A000051
:10230000F0B557464E464546E0B40C1C071C82B05B
:10231000161C1D1C0E2000290AD0002B08D0214BB2
:102320000093984638682B1C01F02CFD002805D03E
:1023300002B01CBC90469946A246F0BD1A4B211C27
:10234000009399467868321C2B1C01F01BFD002875
:10235000EED1164B211C00939A46B868321C2B1CF8
:1023600001F010FD0028E3D143460093F868211CDA
:10237000321C2B1C01F006FD0028D9D14B460093DE
:102380003869211C321C2B1C01F0FCFC0028CFD129
:1023900053467869211C0093321C2B1C01F0F2FC7F
:1023A000C6E7C046A91B0000351C00002D1A00001E
:1023B000F0B557464E464546E0B4041C82B00E1CAC
:1023C000151C1F1C0E20002C0BD0002A09D0234AFC
:1023D000201C904600923B1C2A1C01F0EDFC0028BA
:1023E00005D002B01CBC90469946A246F0BD1C4ADE
:1023F0003B1D91460092201C311C2A1C01F0DCFC84
:102400000028EED1174B201C9A4600933B1C311C30
:102410002A1C083301F0D0FC0028E2D14346009387
:102420003B1C201C311C2A1C0C3301F0C5FC00286D
:10243000D7D14A463B1C0092201C311C2A1C103369
:1024400001F0BAFC0028CCD152463B1C0092143358
:10245000201C311C2A1C01F0AFFCC2E7991C0000B3
:102460007D1A0000551A000030B500281CD0002A43
:102470001AD0156809248D4214D0455D1C780121BD
:102480000D408C432C431C701468005D02244008EE
:10249000014048001978A1430143197013680024D2
:1024A00001331360201C30BD0E24FBE710B5002A59
:1024B00006D0002B04D01C68022C03D8092010BDC4
:1024C0000E20FCE750709224000A14709070186877
:1024D0000328F3D9081C441EA041C0B2D0700028C4
:1024E0000ED01C68072CE9D908881071000A5071B9
:1024F00049889171090AD17108221A600020DEE72B
:102500000422FAE708B5131C922201F03BFA08BD39
:1025100010B5002A06D0002B04D01C68032C03D869
:10252000092010BD0E20FCE75070000A9324907023
:10253000081C1470441EA041C0B2D07000280ED0F8
:1025400018680728ECD908881071000A507149886A
:102550009171090AD17108221A600020E1E7042272
:10256000FAE7C04608B5131C932201F00BFA08BD28
:10257000F0B55F4656464D464446F0B41E1C8DB03D
:102580000023041C0D1C171C0A9300280BD0002EDE
:1025900009D0072909D809200DB03CBC90469946BE
:1025A000A246AB46F0BD0E20F6E70AAA04AB01F046
:1025B00047FA201C291C0AAA06AB01F041FA201C8C
:1025C000291C0AAA08AB01F03BFA6B46291C0AAA8F
:1025D0002633201C01F034FA6946CB8C9A00D218BD
:1025E00052000E320192002F00D1A3E031680C207E
:1025F0008A42D1D832223A80019A69467A800A8A80
:10260000BB81BA800A8BFA800A8CD9003A810A9A77
:10261000C91889188D42BED3002B00D186E0002254
:10262000BA46B346171CBB00DB195B00984608335B
:102630009946D1444B460633201C291C0AAA01F0B6
:10264000FFF94B460833201C291C0AAA01F024FA82
:102650006B46201C291C0AAA0E3301F01DFA5646AF
:102660006A46937B4644B07C01221A40012194467D
:1026700088430122590811404900009161460843EE
:102680000222904301219A080A4092009446009A3F
:102690000421104388430122D9081140C900009148
:1026A000614608430822904301211A090A40120199
:1026B0009446009A10211043884301225909114081
:1026C00062461043202290439B09012213409A0145
:1026D0004901031C0B4340218B431343B3746B46E6
:1026E000201C291C0AAA0F3301F0D6F96B46DA7BAD
:1026F000F37C01210A408B431343F3744B460C33A4
:10270000201C291C0AAA01F09BF9534643441633A6
:10271000291C201C0AAA01F093F969460137CB8CC9
:10272000BFB2BB4200D97EE70A9A5E46AA4200D0F9
:1027300031E7019A326000202EE7C046F0B54746E7
:1027400080B4041C8AB00E1C171C1D1C00280AD063
:10275000002B08D000230893052906D809200AB0C9
:1027600004BC9046F0BD0E20F9E7286808232B60D2
:1027700008AA02AB8046201C01F062F9201C311C23
:1027800008AA04AB01F05CF9201C311C08AA06ABB6
:1027900001F056F9002F26D029688845DED36A4615
:1027A00034233B801389BB80138AFB80138B3A1C34
:1027B0003B810C3229684046431A09930092201C41
:1027C000311C08AA09AB00F061FB0028C7D12A68B8
:1027D000099813182B60002F00D07B8008990020E7
:1027E000B142BBD1BBE70022E4E7C04670B5041C90
:1027F00082B000200D1C161C0190002C06D0002B6E
:1028000004D0092904D8092002B070BD0E20FBE7CE
:10281000E279A17912020A430A32002E24D0196803
:102820000C208A42F0D81A6036233380201C331DD6
:10283000291C01AA01F004F9B31D201C291C01AABE
:1028400001F0FEF8331C0833201C291C01AA01F0FA
:10285000F7F8331C0C33201C291C01AA00F09CFB48
:10286000019BAB42CFD1CFE71A600020CCE7C04636
:10287000F0B557464E464546E0B40D1C88B00021E1
:10288000041C171C1E1C069100280AD0002B08D01F
:10289000072D08D8092008B01CBC90469946A246CE
:1028A000F0BD0E20F7E7291C06AA6B4601F0C8F818
:1028B000201C291C06AA02AB01F0C2F8201C291C0E
:1028C00006AA04AB01F0BCF86B46291C06AA163315
:1028D000201C01F0B5F86946CB8A5A00D218520084
:1028E0000E329246002F41D032680C209245D2D849
:1028F00051463322798069463A800A88BB81BA8082
:102900000A89FA800A8A99003A81069AC9188918B0
:102910008D42BFD300218846002B23D0424653006E
:1029200043445B000833DB199946201C0633291CFD
:1029300006AA01F085F84B460833201C291C06AA7C
:1029400001F07EF84B460A33291C201C06AA01F030
:10295000A3F8434601339BB269469846CB8A434568
:10296000DCD8069AAA4200D094E752463260002092
:1029700091E7C046F0B546464F46C0B4002583B047
:10298000041C0F1C90461E1C0195002809D0002B2A
:1029900007D00A2907D8092003B00CBC90469946F5
:1029A000F0BD0E20F8E7857A437A2D021D431322ED
:1029B000521943469146002B3DD032680C20914578
:1029C000EAD83823424613804A4643465A80201CA0
:1029D000043301AA01F034F843460633201C391CA5
:1029E00001AA01F02DF84346201C391C01AA083326
:1029F00001F026F84346201C391C01AA0C3301F0D3
:102A00001FF84346201C391C01AA0E3301F044F87C
:102A1000434601AA1033201C391C01F011F8019B18
:102A2000EA189742B7D3002D08D19F42B3D14B4645
:102A300033600020B0E732600020ADE74046E11887
:102A40002A1C123006F015F9019AAB18EDE7C046C2
:102A5000F0B557464E464546E0B40D1C88B00021FF
:102A6000041C171C1E1C069100280AD0002B08D03D
:102A7000072D08D8092008B01CBC90469946A246EC
:102A8000F0BD0E20F7E7291C06AA6B4600F0D8FF20
:102A9000201C291C06AA02AB00F0D2FF201C291C16
:102AA00006AA04AB00F0CCFF6B46201C291C06AA2A
:102AB000163300F0C5FF6846C28A0E21D300C9183C
:102AC0008946002F42D031680C208945D3D848462A
:102AD000302178806846398001889B1AB980018945
:102AE000BA81F980018A398106995B189D42C1D368
:102AF0000023002A26D001339A46DB00DB199846D2
:102B0000201C0633291C06AA00F09AFF434608330E
:102B1000201C291C06AA00F0BFFF43460A33201CD4
:102B2000291C06AA00F08CFF43460C33201C291CEC
:102B300006AA00F085FF68465146C28A8BB29A42C7
:102B4000D9D80699A94200D094E7494631600020BF
:102B500091E7C046F0B546464F46C0B4002583B065
:102B6000041C0F1C90461E1C0195002809D0002B48
:102B700007D00B2907D8092003B00CBC9046994612
:102B8000F0BD0E20F8E7C57A837A2D021D4313228B
:102B9000521943469146002B3DD032680C20914596
:102BA000EAD83523424613804A4643465A80201CC1
:102BB000043301AA00F044FF43460633201C391CAD
:102BC00001AA00F03DFF4346201C391C01AA08332E
:102BD00000F036FF4346201C391C01AA0C3300F0DC
:102BE0002FFF4346201C391C01AA0E3300F028FF9A
:102BF000434601AA1033201C391C00F021FF019B21
:102C0000EA189742B7D3002D08D19F42B3D14B4663
:102C100033600020B0E732600020ADE74046E118A5
:102C20002A1C123006F025F8019AAB18EDE7C046D1
:102C300070B5041C82B000200D1C161C0190002CE5
:102C400006D0002B04D0072904D8092002B070BD9B
:102C50000E20FBE7E279A17912020A4301329100CA
:102C60008A185200002E2BD01B680C209A42EDD8F7
:102C700031233380201C331D291C01AA00F0CEFE15
:102C80000028E3D1B31D201C291C01AA00F0C6FEB8
:102C90000028DBD1331C201C291C01AA083300F0BA
:102CA000BDFE0028D2D1331C0C33201C291C01AAE4
:102CB00000F090F90028C9D1019BAB42C5D1C5E70E
:102CC0001A600020C2E7C046F0B5474680B4041C35
:102CD00082B000200E1C171C1D1C0190002C08D077
:102CE000002B06D0022906D8092002B004BC904669
:102CF000F0BD0E20F9E7002A1BD01B680C200C2B1E
:102D0000F3D9392313800D235380201C9846131DBB
:102D100001AA00F095FE3B1C0C33201C311C01AABB
:102D200000F0BAFE019BB342DED143462B60002087
:102D3000DBE70D232B600020D7E7C046F0B5464601
:102D40004F46C0B4002583B0041C0F1C90461E1CC7
:102D50000195002809D0002B07D00C2907D809209D
:102D600003B00CBC90469946F0BD0E20F8E7057BF9
:102D7000C37A2D021D431522521943469146002B5A
:102D800044D032680C209145EAD83723424613805C
:102D90004A4643465A80201C043301AA00F050FEE4
:102DA00043460633201C391C01AA00F049FE434665
:102DB000201C391C01AA083300F042FE4346201CA7
:102DC000391C01AA0C3300F03BFE4346201C391C81
:102DD00001AA0E3300F060FE4346201C391C01AAF4
:102DE000103300F02DFE434601AA1233201C391C7B
:102DF00000F026FE019BEA189742B0D3002D08D1BF
:102E00009F42ACD14B4633600020A9E732600020DE
:102E1000A6E74046E1182A1C143005F02AFF019A63
:102E2000AB18EDE730B5039C002B06D0002C04D086
:102E30002568042D03D8092030BD0E20FCE758700A
:102E4000D9709025090A000A1D70987019712168BF
:102E50000529F0D9111C481E8141C9B259710029B8
:102E60000CD02568082DE6D911889971090AD97105
:102E700092781A72092323600020DDE70623FAE71F
:102E800008B5131C902200F07DFD08BDF0B5444646
:102E900056464D465F46F0B4061C1068141C85B0BB
:102EA0000D1C98460A1A032A07D8092005B03CBC15
:102EB00090469946A246AB46F0BD02AF301C221C9C
:102EC0003B1C00F0BDFD301C291C221C6B4600F091
:102ED000B7FD424611683B88684602888946191C3E
:102EE0005143D8008B46042182468C46D444DC44AE
:102EF0006046414608600E98002845D04280038015
:102F0000011C404602689145CFD3514404318946A3
:102F1000002B3FD0081C0E990E9B886022689A46B1
:102F200004239A44AB1A012BBFD988460C230020F6
:102F3000984483461BE053465868711805F099FE83
:102F40000E98216843886A46CB18236013889944F9
:102F500001239B443B885B451CD94946424651604E
:102F60002068C2462B1A012B9FD908218844291CAE
:102F7000221C5346301C00F063FD0E9B21685A88CA
:102F80006B1A9A42D7D990E722685B005946C81855
:102F900010182060002089E7F8B51E1C1368141C67
:102FA000071C0D1CCA1A012A01D80920F8BD221CD1
:102FB000331C00F045FD216832886D1AAA42F4D80E
:102FC000B01C791805F055FE338822680020D3180C
:102FD0002360EBE7F0B5474680B482B01F1C6B4618
:102FE000061C0C1C151C00F019FD00280FD16A46A8
:102FF000138800223B8090460237002B2DD0301CD6
:10300000211C2A1C3B1C00F009FD002803D002B043
:1030100004BC9046F0BDBB1C301C211C2A1C00F0D7
:10302000B1FD0028F3D12A68A31A032B01D8092087
:10303000EDE7BB1D301C211C2A1C00F001FD3B1CD0
:1030400008332A1C301C211C00F0FAFC01236A46BC
:10305000984413880A374345D1D80020D7E7C046A3
:1030600070B50D1C1C1C002A06D0002B04D01B6858
:10307000032B03D8092070BD0E20FCE797231370A3
:103080000B1C591E8B415070DBB2000A9070D3703C
:10309000002B2DD026680C2EECD92B78072013712D
:1030A0006B7853716B8893711B0AD371AB88137261
:1030B0001B0A5372EB8893721B0AD372EB88142B92
:1030C000D9D8AB68591E8B411373A968002911D058
:1030D000EB882668181C0D30B042CBD8101C0D3080
:1030E0001A1C05F0C6FDEB880D3323600020C2E7F3
:1030F0000423FAE70D23F8E708B5131C972200F024
:1031000041FC08BDF0B5474680B4041C82B00020E5
:103110000E1C171C1D1C0190002C08D0002B06D083
:10312000022906D8092002B004BC9046F0BD0E204A
:10313000F9E7002A1AD01B680C20032BF3D953237C
:10314000138004235380201C9846131D01AA00F00D
:1031500077FCBB1D201C311C01AA00F071FC019BF7
:10316000B342DFD143462B600020DCE704232B6011
:103170000020D8E7F0B54F4680B4061C86B00C1C82
:10318000171C1D1C0E20002E14D0002B12D02868F6
:1031900000230393022381462B60301C03AA02AB59
:1031A00000F03CFC002805D1002F40D0296889455B
:1031B00004D2092006B004BC9146F0BD51236A46F2
:1031C0003B801389BB80BB1D29684846421A049284
:1031D0000093301C211C03AA04AB00F031FA002834
:1031E000E8D12A68049813182B60002F1AD0BB79F5
:1031F000022B17D1BB7A062B14D1B88805A9FDF78D
:1032000093F805280ED005990C224A43094B301C2F
:10321000D218131D08320092211C03AA00F054FC9E
:103220000028C7D1039AA242C3D10020C2E70023DD
:10323000CAE7C0465C12002070B5002482B00E1CA4
:103240001D1C0194002818D0002B16D0012910D97C
:10325000002A17D01B680C24012B0BD954230224FD
:1032600013805480131D01AA00F0EAFB019BB342B6
:1032700005D00924201C02B070BD0E24FAE72C6092
:103280000024F7E702232B600024F3E7F0B547465C
:1032900080B4041C82B000200E1C171C1D1C019061
:1032A000002C08D0002B06D0022906D8092002B035
:1032B00004BC9046F0BD0E20F9E7002A1AD01B6826
:1032C0000C20022BF3D95223138003235380201C9C
:1032D0009846131D01AA00F0B3FBBB1D201C311C36
:1032E00001AA00F0D9FB019BB342DFD143462B601A
:1032F0000020DCE703232B600020D8E7F0B5474629
:1033000080B4041C82B000200E1C171C1D1C0190F0
:10331000002C08D0002B06D0022906D8092002B0C4
:1033200004BC9046F0BD0E20F9E7002A1AD01B68B5
:103330000C20022BF3D95523138003235380201C28
:103340009846131D01AA00F07BFBBB1D201C311CFD
:1033500001AA00F0A1FB019BB342DFD143462B60E1
:103360000020DCE703232B600020D8E7F0B54F46B0
:1033700080B4061C86B00F1C141C1D1C0E20002ED1
:1033800014D0002B12D02868002303930223814617
:103390002B60301C03AA02AB00F040FB002805D1D3
:1033A000002C3CD02968894504D2092006B004BC11
:1033B0009146F0BD6A461389A380A31D296848463B
:1033C000421A04920093301C391C03AA04AB00F08B
:1033D0002BF80028EAD12A68049813182B60002CD7
:1033E00018D0237A062B15D1A08805A9FCF79CFFDD
:1033F00005280FD0059B301C5A00D318094A9B00A2
:103400009A18131D08320092391C03AA00F05CFBC5
:103410000028CBD10399B942C7D10020C6E70023C9
:10342000CCE7C0465C120020F0B557464E464546F4
:10343000E0B4041C8AB00F1C151C1E1C0E20002CAE
:103440000ED0002A0CD0002B0AD01A681A239046FE
:103450003360201C2A1C02AB00F0E0FA002805D0E3
:103460000AB01CBC90469946A246F0BD201C391CEF
:103470002A1C6B4600F002FB0028F1D1201C391CED
:103480002A1C05AB00F07EFB0028E9D1201C391C6A
:103490002A1C06AB00F076FB0028E1D1201C391C69
:1034A0002A1C07AB00F06EFB0028D9D12A6809203E
:1034B000BB1A042BD4D9201C391C2A1C08AB00F0E1
:1034C000BFFA6B46201C391C2A1C223300F0B8FAC4
:1034D000201C391C2A1C09AB00F0DEFA04AB201CAE
:1034E000391C2A1C9A4600F099FA0028B8D11222F9
:1034F0006A449146201C391C2A1C4B4600F08EFA67
:103500000028ADD14A46138832689B18129A33605E
:10351000002A22D0984501D20920A1E76A461389E2
:10352000129A05A913806A461378129A101C937098
:103530000430122205F09DFB52461388129AD38262
:103540004B461A88129B1A8329687F1ABA42E3D81D
:10355000181C1A30611805F08CFB4A4613882A683B
:103560000020D3182B607BE7F0B5474680B4041CDD
:1035700086B00E1C151C1F1C0E20002C0CD0002A1F
:103580000AD01A68162390463B60201C2A1C6B4602
:1035900000F044FA002803D006B004BC9046F0BD09
:1035A000201C311C2A1C01AB00F0ECFA0028F3D1DE
:1035B000201C311C2A1C02AB00F0E4FA0028EBD1DD
:1035C000201C311C2A1C03AB00F0DCFA0028E3D1DC
:1035D0002A680920B31A042BDED9201C311C2A1CAE
:1035E00004AB00F02DFA6B46201C311C2A1C123350
:1035F00000F026FA201C311C2A1C05AB00F04CFA06
:103600006B46201C311C2A1C023300F007FA0028EC
:10361000C2D10C9B002BBFD03B6809209845BBD37F
:103620006A4613880C9A01A9101C138002301222DA
:1036300005F01FFB6A4653880C9A00209382ABE783
:10364000F0B5041C87B00F1C161C1D1C0E20002C8E
:1036500018D0002B16D0002A14D0201C02AB00F08A
:103660000DFA00280ED12B680C99022204932A60CF
:10367000002920D069460A7A0C9909200A70296825
:103680008B4201D207B0F0BD012A1CD0022A10D112
:103690000C9B02330093201C391C321C04ABFFF737
:1036A000C3FE0028EED12A680499002053182B602D
:1036B000E8E70B20E6E76A46137A012B0FD0022BCE
:1036C000F7D10023E6E70C9B02330093201C391C42
:1036D000321C04ABFFF748FF0028E4D0D2E70023F8
:1036E000F3E7C04610B5041C247882B06846E407AE
:1036F0000730E40F047000F0B3F902B010BDC0460B
:1037000030B585B00193089B099C002B07D0002C95
:1037100005D02568072D04D8092005B030BD0E203E
:10372000FBE7089DAA232B706870131C000AA87081
:10373000581E8341DBB2EB70002B1BD0206805289C
:10374000EAD9138806222B711B0A6B71072325689F
:10375000AB42E1D8089802934B1E994181542268EC
:1037600001A8089902AB00F02DF90028D5D1029AE2
:103770002260D2E705230422E9E7C046F0B5051C24
:1037800085B00E1C141C1F1C002815D00A9A002A94
:1037900012D000230393009203A9321CAA2300F045
:1037A000CBF8002809D10A9A1368002B07D0039B95
:1037B000B3421BD0092000E00E2005B0F0BD039BF2
:1037C00003339E42F6D3311C02AB281C03AA00F03F
:1037D00037F9039B591CEB5C0391012B08D0002F98
:1037E00002D06A4613893B808E42E3D10020E4E791
:1037F000002CE1D0002FDFD06B461A893B880C20CB
:103800009342DAD353189E42D4D36918201C05F092
:1038100030FA6A461189039B3980C918E4E7C0462B
:1038200030B585B0151C089A0193099C002A07D071
:10383000002C05D02368072B04D8092005B030BD23
:103840000E20FBE7089AA9231370042350700293FB
:10385000000A0B1C90705A1E9341089ADBB2D37079
:10386000002B18D0802307209B009D42E6D82B1CFC
:1038700022680A339342E0D8089A089B101C1D71F5
:103880002B0A5371063006232A1C029305F0F1F926
:10389000029B5D19029501A80899226802AB00F00D
:1038A00091F80028CAD1029A2260C7E708B5131C14
:1038B000A92200F067F808BDF0B5474680B4041CA3
:1038C00086B00F1C161C1D1C0E20002C30D0002AA8
:1038D0002ED0002B2CD000232968049302232B60C8
:1038E0006B468846201C391C04AA0E3300F096F85B
:1038F00000281DD1331D201C391C04AA00F08EF8AD
:10390000002815D129684246531A063605930096B9
:10391000201C391C04AA05AB00F060F9002807D16F
:103920002A6805995318049A2B60BA4200D00920DE
:1039300006B004BC9046F0BD30B500281FD0002969
:103940001DD0039C002C1AD00C24042A18D90A6814
:103950000B24855C9D4213D1013280184278837814
:1039600012021B041343027800241343C278120688
:103970001343039A13600B6805330B6000E00E24B9
:10398000201C30BD30B5041E05D0002B03D00C2008
:10399000042902D830BD0E20FCE725780B20954283
:1039A000F8D1A078E2780002120402436078024362
:1039B0002079000602431A60052901D00C20E9E7AE
:1039C0000020E7E730B5041C002915D0002813D0EB
:1039D000002B11D01D680920521B032A0DD9226823
:1039E0004919100A0A7048700435100C120E8870BC
:1039F000CA7000201D6000E00E2030BD30B51C688C
:103A0000051C121B0920012A07D92A8809190A70E6
:103A10000234120A4A7000201C6030BD30B51568AF
:103A20000924491B012909D945196978287809020F
:103A3000014319801368002402331360201C30BD39
:103A400030B51468A51C8D4208D804196178207817
:103A500009020143198013680233136030BDC04668
:103A600030B51C68051C0920944205D02A78002036
:103A70000A551A6801321A6030BDC04630B5146864
:103A8000051C09208C4205D0295D0020197013689F
:103A90000133136030BDC04630B51468651C8D42DB
:103AA00004D8015D197013680133136030BDC0463E
:103AB00030B51468651C8D4204D8015D1970136817
:103AC0000133136030BDC046F0B5474680B4141CC6
:103AD000069A1588AC4625684E1B012E19D9451942
:103AE0006E782D7836023543158027680926BD1C6F
:103AF000256012889046A94207D00337B9420AD2FE
:103B0000002B23D000221A600026301C04BC9046F3
:103B1000F0BD0926F9E7425D2760012AF0D1002BAC
:103B200012D01B68002B0FD0C445EED3C91B8845AB
:103B3000EBD8C1194246181C05F09BF822680026F4
:103B4000131C43442360E0E70E26DEE70026DCE793
:103B500070B504AC151C2688002B06D01268092409
:103B6000891A8E4203D9201C70BD0E24FBE78118F0
:103B7000181C321C05F07DF82B6800249E192E605D
:103B8000F1E7C046F8B51F1C1368061C0D1C141C79
:103B9000C91A0920022900D8F8BD301C291C3B1C79
:103BA000FFF74EFF301CBB1C291C221CFFF774FFC3
:103BB0000020F1E770B51D68061C1C1C521B092073
:103BC0000F2A00D870BD48191022311C05F051F899
:103BD0002368002010332360F4E7C046F0B5464662
:103BE0004F46C0B4051C83B08846161C1F1C0E240B
:103BF00000281BD0002A19D0002B17D01868126893
:103C000000238146684603800192281C01AA6B4666
:103C1000FFF704FF041E09D16A4613880A9804338B
:103C20003B60002802D0994506D20924201C03B02D
:103C30000CBC90469946F0BD281C4146321C0A9B9C
:103C4000FFF7ECFE041EF1D10A9B281C023341460B
:103C5000321CFFF7E3FE041EE8D10A9B31681A8884
:103C60004046431A9A42E0D80A986918043005F091
:103C700000F80A9A30681388C3183360D6E7C04644
:103C8000F8B5061C0C1C171C1D1C0E20002908D0A2
:103C9000002B06D0002E04D0301CFEF729FA002895
:103CA00000D0F8BD701C211C3A1C2B1CFFF71AFD1C
:103CB000F7E7C046F0B5474680B4061C84B00F1C39
:103CC000141C1D1C0E20002A10D0002B0ED0002327
:103CD000684603932B6863220B3098460270211CC0
:103CE0001A1C03ABFFF7BCFE002803D004B004BCD1
:103CF0009046F0BD0A4B301C0093211C424603AB9A
:103D000000F040F80028F1D10090211C381C4246F8
:103D100003AB00F037F80028E8D1039B2B60E5E700
:103D2000B53B0000F0B5051C85B00C1C171C1E1C13
:103D30000E20002D15D0002B13D0002A11D0002307
:103D400003930096281C03A9221C6323FFF7F4FDAC
:103D5000002806D13368002B05D0039BA3420DD069
:103D6000092005B0F0BD064B281C0093211C03AAB6
:103D70003B1C00F021F80028EFD0F2E70020F0E72C
:103D80007D3A000070B51C68051C092094420FD0D4
:103D9000281C461EB041C0B208551C6801341C6086
:103DA000002806D00498002803D0041C281CA04733
:103DB00070BD0020FCE7C046F0B5151C1268041C5D
:103DC00083B00E1C1F1C09208A4201D103B0F0BD34
:103DD0002A1C6B46201CFFF75FFE6A461378012BF6
:103DE00007D00B20002BF1D1002F10D03B6000201A
:103DF000ECE7002F0DD03B68002B0AD0089A002A70
:103E000005D0201C311C2A1C089CA047DEE700209E
:103E1000DCE70E20DAE7C046EF23A0220321DB0017
:103E2000D205D1508021A322C9050123D2008B5095
:103E300082225200002088508B608B58002BFCD0CF
:103E40008223802200215B00D2050020D1507047E0
:103E500008B501F0ABFF08BD034B8021A022C905C6
:103E6000D205D1507047C0460C0500008021A12327
:103E7000A022C905DB00D205D1507047054AC523F1
:103E80009B00D05804490140C02000040143D15098
:103E90007047C04600E100E0FFFF00FF034A8021B9
:103EA0008023C9035B00D1507047C04600E100E0A9
:103EB000014B18787047C046A8000020A02380223C
:103EC0000121DB00D205D150FEE7C046F0B54746E0
:103ED00080B488B004AC019002910392201C0C22A3
:103EE0000021FCF795F905236A4623701379062B08
:103EF00014D8784A9B00D3589F46012323706B4601
:103F00001A89C0235B00744D9A4200D96EE02B7869
:103F1000012B00D1ACE0042B00D17DE0002000217A
:103F2000002201F0AFFA08B004BC9046F0BD0423B3
:103F3000237001232371694B04981B686168A26890
:103F40009847F0E702222271029A0423A260644A91
:103F500023701178032966D05F4D2E78022EEAD1A6
:103F6000039F2B7000F092FD002F00D192E01023F0
:103F700098465C4B9F4200D18FE000F00FFD404619
:103F80000021002201F07EFAD5E7554B1A78032A6A
:103F9000C4D101221A7000232370CCE74E4A137853
:103FA000022BBBD104211170029923706A46616013
:103FB000938904982381494BA2681B689847B2E70C
:103FC000454D2B78032B39D0062BA7D10323237023
:103FD000424B04981B686168A268984704232B70C1
:103FE000A1E70423237000232371A4E72B78012B7E
:103FF0002ED0042B00D091E7384B07CC1B68984794
:10400000002000F053FD002803D00021002201F021
:1040100039FA06232B7086E7304B07CC1B6898478C
:1040200005232B707FE71370039B002B30D02E49A4
:1040300010208B42A4D1012313707CE72370274BFF
:1040400004981B686168A268984701232B706AE78F
:10405000224B07CC1B689847002000F027FD002862
:1040600003D00021002201F00DFA03232B705AE740
:104070001A4B07CC1B6898471A4800F017FD002818
:1040800003D00021002201F0FDF902232B704AE742
:104090000E2075E70E2290466FE72B78042B12D086
:1040A000062B13D008229046052B00D065E7381C5C
:1040B00000F0FCFC03239846002800D05DE72E703A
:1040C00000F06CFC37E701232B70F9E703232B701A
:1040D000F6E7C046688E0000B0000020AC0000206B
:1040E000B403002034020020B4000020F8B50F4CC7
:1040F000021C23780820002B00D0F8BD0C4E357828
:10410000002DFAD10E20002AF7D00A4F01230A48C9
:10411000237033703A6000F04BFD0028EDD025701D
:1041200035703D600728E8D00320E6E7B0000020A6
:10413000B4030020AC000020CD3E000070B5041C8C
:1041400000F0A4FC002C07D0124B10259C4205D097
:1041500000F024FC281C70BD0E25F9E70E4E3378C4
:10416000042B0BD0062B0DD00825052BF0D1201CDD
:1041700000F09CFC051E09D00325E9E701233370FC
:104180000025E5E7032333700025E1E702233370C0
:10419000DEE7C04634020020B000002010B5002841
:1041A00008D0002906D00A4C08232278002A03D11F
:1041B000181C10BD0E23FBE70423012AF8D10223AB
:1041C0002370044B0360C0235B000B800023EFE7E8
:1041D000B4030020B4000020F8B5051C0E1C002814
:1041E0001FD00724002901D1201CF8BD104B10243A
:1041F0009842F9D1C0230C245B009942F4D80D4FAA
:1042000008243B78022BEFD100F040FC281C311C25
:1042100000F08CFC041E06D103233B7000F0BEFBB3
:10422000E2E70E24E0E71128F8D00324F6E7C046C1
:10423000B4000020B403002070B5234B234A187843
:104240001278234DC0231843D20010432A880E2130
:104250001201204C0A43FF2392B2D1B220701840C1
:104260006170120A0918A2708A18134088B05B4264
:1042700004210022201CE37001F07AFC164E6A46ED
:1042800010802988306801F073FC6B461880134B4E
:1042900004221870000A587002A882802A8804A993
:1042A00036688A80069306AA0223029404969380B5
:1042B00000F016FF002804D000200021002201F0A9
:1042C000E1F808B070BDC04664060020FC04002080
:1042D00058060020740600207006002048060020C2
:1042E000F0B54D465F4656464446F0B475487649AB
:1042F00095B0764E764F10AD8046894601F026FC8B
:10430000301C291C01F012F9041E0BD0714B012244
:104310001A7001F023FC15B03CBC90469946A246A9
:10432000AB46F0BD01F01AFC3A78D3B2022B46D06E
:104330000DD9032B74D0042B3BD12B78012B02D148
:104340002B79012B77D0A86800F00AFFD6E7012B64
:104350002FD12B78012BD1D12A79022ACED1AA686C
:104360005D4910788A4683460878072101905846AF
:10437000084084460198604577D0584B042118685E
:104380008B46397000F0ECFE53461A68544BD2004D
:10439000D2B2594668461A7052428181DA7002A838
:1043A000002100225C709C70029300F099FE0028AE
:1043B000A4D000200021002201F064F89EE72B78B1
:1043C000002B9BD12B79012B98D13E4B18680028EC
:1043D0000AD0424C434B21681A880431063A04F053
:1043E00048FC206800F0BCFE03233B703A4B0721D9
:1043F0001A6802A801320A401A60394BD2001A70BA
:1044000000215242DA7059706A469970029304236F
:104410009381002200F064FE002800D16EE7C8E717
:104420002B78012B00D069E72B79012B05D0022BCB
:1044300000D063E787E73B7060E740460368002BE6
:1044400035D0284A099311880AAB063919801E4BCA
:1044500008AA1B6802201070002B03D00898099945
:104460000A9A984701233B7048E71F4813A9098817
:1044700003701C4C194B21801A60062910D90122A7
:104480000CAB1A7006390DAA11800F4A1468002C63
:1044900003D00C980D990E9AA04702233B702DE78C
:1044A00000210020002200F0EDFF2188E7E74946C7
:1044B0000C6804AB1A70002CD4D004980599069AA5
:1044C000A047CFE74406002054060020A88E000035
:1044D000F804002061000020FC0400205C0600209D
:1044E000680600205A06002060060020F0B5444609
:1044F0005F4656464D46F0B4A6488FB0A64DA74E2F
:10450000A74F0AAC804601F021FB281C211C01F0BA
:104510000DF800280BD0A34B01221A7001F01EFBEE
:104520000FB03CBC90469946A246AB46F0BD01F0A8
:1045300015FB3378052B47D89B00FB589F46237902
:10454000022BE0D1A0680378417882785918891845
:10455000C2788A18FF21114232D10722DB088D4927
:1045600013409C460B689A4601239A4453461340D5
:1045700099469C4505D0012399444B461A409445E1
:104580001ED180208002884A8446C2206346800073
:104590001350012050605346072213400B60834B99
:1045A00000221A6001AB1A70814A10688446002804
:1045B00003D001980299039AE047012333700C98C5
:1045C00000F0CEFD00289ED000200021002200F047
:1045D00059FF98E72378012B95D12379002B76D1C9
:1045E00040460268072101320A4002606F4A1360A8
:1045F00007AA13706E4B1B68002B7BD00798089995
:10460000099A984776E02378012B98D0022B00D0A6
:1046100079E7684A1368013B1360002B5BD0FFF712
:104620000BFE032333706EE72378012B00D06AE77B
:104630002279002A61D0022A00D064E7A0680378BA
:104640004178827859188918C2788A18FF21114256
:10465000B6D1504907220968DB08013113401140E7
:104660008B4203D001310A409342A9D14E4B8021A5
:10467000C22292008902995001225A6005233370A8
:104680009DE72378012B00D03DE72279002A5FD0F7
:10469000022A00D037E792E72378002B13D1237941
:1046A000002B00D02FE7FFF7C7FD3F4B8021C22230
:1046B00092008902995001225A603E4B05221A60ED
:1046C000022333701FE7012B00D01CE72379022B54
:1046D00000D018E773E7354B06221B68069304AB3E
:1046E0001A70334A10688446002803D0049805994C
:1046F000069AE0470123337005E72B488346802064
:1047000080028446C2208000814658464844614663
:10471000016029499B208A46C100584650440160E7
:1047200058465044016889460A21894459464846FA
:10473000514408605846C360A220400059460A50C0
:104740000B60C1239B006246CA5004233370DAE633
:10475000802080028446C2201349800081468B4617
:1047600060464944086014489B218246C800594667
:104770005144086059465144086881460A208144E2
:1047800058464946504401605946A220CB6040003B
:10479000D5E7C046640600209C8E00004D06002030
:1047A000848E00006000002000A000407006002001
:1047B00054060020400600204405000030B5037870
:1047C00085B0002B44D0012B5DD0022B01D005B069
:1047D00030BD694601220A7042680B71029203895A
:1047E0008B81002A00D17EE0002B63D0029C032B3A
:1047F00023D961780F220A402ED00E2A1DD1042B16
:104800001BD02278500618D550B2002815DAA078AF
:1048100052181218E078FF21121811420DD19D1E76
:10482000201C0022291C01F0A3F964196378227866
:104830001B021343984229D0029C201C00F090FCDC
:104840000028C4D000200021002200F01BFEBEE79B
:10485000684601220270037101F078F92548694623
:1048600000F028FE00282DD1234B1A78002A1ED0F4
:10487000224A1278002A1AD000221A7001F06EF92A
:10488000FFF734FEA3E769460B700B7101F05EF988
:104890001B48694600F00EFE002804D000200021CD
:1048A000002200F0EFFD174B1A78002A10D101F01A
:1048B00055F98CE700220020002100F0E3FD6A4654
:1048C000938993E700200021002200F0DBFDCBE775
:1048D0000A4A1278002AEAD000221A7001F03EF942
:1048E000FFF7FEFC73E70021002000F0CBFD6946D6
:1048F0008B8979E79C8E0000600000206300002017
:10490000A88E00006100002010B51E4BA2214900B6
:104910005A5884B0012A01D004B010BDC1208000D3
:1049200018588403F8D500205850DA60164B1B78CD
:10493000002B02D1154B1A70EEE76A460223107164
:10494000137001F003F91248694600F0B3FD002826
:1049500011D1104B1A78002A0AD00F4A1278002A77
:1049600006D000221A7001F0F9F8FFF7BFFDD3E777
:1049700001F0F4F8D0E700200021002200F082FDD1
:10498000E7E7C04600A00040620000204C0600207F
:104990009C8E00006000002063000020F0B585B010
:1049A00001F0D4F8324B01221A70324B00251A78EC
:1049B000002A01D01D70012501F0D0F82E4C0123F2
:1049C000237001F0C3F82D4F381C00F0DDFD2C4E94
:1049D0003378002B02D02378002B37D101F0BEF8BA
:1049E00001F0B4F8274800F0CFFD274B1A78002AD1
:1049F00002D02278002A05D101F0B0F8002D0BD1A9
:104A000005B0F0BD0028F7D000221A7001F0A6F81A
:104A1000FFF766FC002DF3D06A46022313700023D3
:104A2000137101F093F8381C694600F043FD00282B
:104A300018D13378002B12D02378002B0FD000230D
:104A4000337001F08BF8FFF751FDD9E70028C5D08E
:104A50000023337001F082F8FFF748FDC0E701F052
:104A60007DF8CDE700200021002200F00BFDE0E7FB
:104A7000620000204C060020630000209C8E000095
:104A800060000020A88E00006100002008B501F041
:104A90005DF8044A00231370034A137001F05EF8B6
:104AA00008BDC046620000206300002000B51A4B1C
:104AB000011C1A7885B01120002A01D105B000BD73
:104AC00000221A70154B19606B461A7001236A4652
:104AD000137101F03BF81248694600F0EBFC002826
:104AE00013D1104B1A78002A0BD00F4A1278002AE3
:104AF00007D000221A7001F031F8FFF7F1FB002017
:104B0000DCE701F02BF80020D8E70020002100228C
:104B100000F0B8FCE5E7C04660060020440600202F
:104B2000A88E0000610000206300002010B5031C67
:104B300084B00E20002B01D0002901D104B010BD9B
:104B4000164C11202268002AF8D1154823606B46C4
:104B500001801A701A7100F0F9FF1248694600F0DE
:104B6000A9FC002813D1104B1A78002A0BD00F4A49
:104B70001278002A07D000221A7000F0EFFFFFF72A
:104B8000B5FC0020DAE700F0E9FF0020D6E70020BE
:104B90000021002200F076FCE5E7C0467006002008
:104BA000580600209C8E000060000020630000205A
:104BB000F8B54F464646C0B42A4C051C2378082059
:104BC000002B03D00CBC90469946F8BD264E337896
:104BD000002BF7D10E20002DF4D0244AA221092069
:104BE000C9005050224901205350A1230321DB006A
:104BF000D150C22189004342D06081465350802069
:104C0000C12380029B00D0501A4B8022C020D200CA
:104C100040001A505F581848BC46071C60460740C1
:104C2000B8468027F803474607435F5013481A6089
:104C300000F034FC002801D00320C3E7104800F046
:104C40002DFC0028F8D10F4800F0ACFA0028B9D1AB
:104C50000D4B18600D4B18600D4B1D604B462370BB
:104C60003370AFE74D060020F804002000A000409C
:104C70000405000000E100E0FFFF00FF9C8E000043
:104C8000A88E0000BD470000FC0400206406002040
:104C900054060020F8B54F464646C0B47C4C2378F5
:104CA000002B27D17B4E3278002A00D088E07A4D45
:104CB0002B68002B58D1794A1178002943D07849C4
:104CC0000A689088002854D076490878002800D1D6
:104CD000B2E012680020D35C0870C02B69D0DD20E0
:104CE00000F0E0FF2B6801332B6000200CBC9046E5
:104CF0009946F8BD6C4A002310682370002800D143
:104D0000A6E06A49141C60CC60C169486949051C69
:104D1000C0CDC0C16849694C0E1CA0CEA0C41360B0
:104D200093805D4A0360136083800B608B80FFF784
:104D3000B1FF0122624B63481A7001230370624B7A
:104D40001B689847D1E7614909780029B7D16049C4
:104D500009780029B3D101231370544A504BC02065
:104D60001A6000F09FFFC0E74D490A6890888342AF
:104D7000AAD1574807788146BC46002F6AD1474FD1
:104D80003878002843D04B4B60461E682860002EC0
:104D90006ED038704D480122027030780B60C02808
:104DA00001D0DB2806D13F4BDB201A7000F07AFFE0
:104DB0009BE7DC2000F076FF2B6801332B6094E743
:104DC000394A33701668002E50D03849141CA0CCD4
:104DD000A0C137483749051CC0CDC0C13649374C42
:104DE0000E1CA0CEA0C4136093802B4A03601360F6
:104DF00083800B608B80FFF74DFF0122304B3148E1
:104E00001A7000230370304B1B6898476DE72F4CD6
:104E10002778002F00D157E7284B28601A68171E03
:104E20002DD0244A20701060484601220270387844
:104E30000B60C028B5D1B6E71268D05CC02801D09D
:104E4000DB28B7D10123DB200B7000F02BFF4CE7F0
:104E500000226FE7C02000F025FF184A00234846D3
:104E6000136003702B60012333703EE70022C5E717
:104E7000C02000F017FF01233E70237035E7C020EB
:104E800000F010FF0B4B27701F60012333702CE7DD
:104E90006908002068080020300800201808002059
:104EA000500800205D0800201C0800207808002021
:104EB0001008002034080020600800202808002086
:104EC000550800206C0800205808002054080020D5
:104ED0004C080020F0B5474680B400280BD003787A
:104EE000032B42D0042B09D0022B41D003200021F8
:104EF000002200F0C7FA04BC9046F0BD6B4B1A7854
:104F0000002A01D101221A70694B0479694D1C7085
:104F10002B78002B37D0684E3368002B01D1C02C82
:104F2000E9D0664F3A68002A34D0654909780029EB
:104F300030D1002B64D163490A60DB2C00D19BE0A7
:104F400000D8AFE0DC2C00D19AE0DD2C00D0A0E04E
:104F50005D4A1178002902D000211170DB24594AE2
:104F6000591C12683160D454C5E7FFF793FEC2E7BD
:104F7000436803221A42BED054484360544B027027
:104F80001B689847B7E7C02CB5D14B4A1360012383
:104F90002B70B0E74F4F3A68002A2ED048480121C5
:104FA00001708046474802608620FF3083423ED928
:104FB000C02C22D1454802210381454B01701B685A
:104FC00042609847002341462B703B600B7092E78C
:104FD0008621FF318B42B0D9C02C0ED139490C68E3
:104FE000A2425CD03B4A0021116038480222038172
:104FF000374B027044601B68984700232B707AE798
:10500000042BE5D1C02C4FD0324B1B68002BF4D0C1
:10501000314832490422804603F02BFE294B414699
:10502000196086223368FF329342E6D885E7DB2C8D
:105030001FD00ED9DC2C14D0DD2C0CD122490878DD
:10504000002802D000200870DB24591C3160D454A1
:1050500051E7C02CAED01C490978002900D04AE79E
:10506000F3E7194908780028EFD000200870C02421
:10507000EBE7154B19703EE7134B01221A703AE724
:10508000114A1178002900D169E700211170C0246C
:1050900065E70D4A1278002A00D02CE75FE700226E
:1050A0003A60A2E7C02CF4D13A6897E75C08002088
:1050B00024080020040800200808002048080020D8
:1050C00040080020000800200C0800206C08002088
:1050D0005808002044080020780600203C080020E2
:1050E000F8B5041C0D1C161C00F030FD002C26D059
:1050F000144B1A78002A10D0002E02D0124B82CE08
:1051000082C3002D02D0114B03CD03C3104B81CCC1
:1051100081C300F023FD0020F8BD0E4A81CC81C27E
:10512000002D02D00C4A11CD11C2002E02D00B4A24
:1051300081CE81C201221A70FFF7ACFDE9E70E2093
:10514000EAE7C0465508002060080020100800204B
:105150001C080020780800203408002028080020BF
:10516000031E07D00B4A904206D00B4A0020934200
:105170000AD070470E20FCE7084A08201168002971
:10518000F7D113600020F4E7054A082011680029D0
:10519000EFD1F6E73C080020780600204808002000
:1051A0004408002038B5041E05D00B4D08202B689C
:1051B000002B02D038BD0E20FCE7084A0223084825
:1051C000002100F02BFD074A074B2C601A60074AAC
:1051D000074B1A60EEE7C04658080020D54E000085
:1051E000B48E00003C08002048080020780600200B
:1051F0004408002070B584B00190C0B202910392BF
:10520000012836D000282DD0022811D004280DD135
:10521000274B1A78002A09D0264A03211160002260
:105220001A70254B1B68002B00D0984704B070BD46
:10523000029C6B469989002CF8D00029F6D025787D
:105240000139601C89B2022D2DD0042D17D0012DFB
:1052500015D0201CFEF772FF281C0021002200F050
:1052600011F9E3E7FEF724FE0028DFD0FEF726FE63
:10527000DCE7124B1B68002BD8D09847D6E70C4EC2
:105280003378002BE5D00E4B1B689847094B18600C
:10529000201CFEF753FF00233370074B1B68002BC5
:1052A000C4D09847C2E7074B1B689847BEE7C04683
:1052B0008008002098080020900800209408002012
:1052C000880800208C08002010B5041C08480160E4
:1052D000084907200A60084A1360084B00221A6038
:1052E000074B1C60002C02D00648FEF7FFFE10BDE5
:1052F0008408002090080020940800209C080020CA
:105300008C080020F5510000014B1878C0B270479E
:105310008008002008B5054B1A781123002A01D017
:10532000181C08BDFEF73AFF031CF9E780080020AF
:1053300008B50138FEF702FF08BDC04670B5104E33
:10534000012333700F4B151C1A60FEF745FF041E36
:105350000DD1002D0FD00C4D2B68002B01D098479C
:105360002C600A4B1B689847094B1C6805E000211C
:10537000002200F087F800233370201C70BDC04667
:1053800080080020880800209C0800208408002055
:10539000980800207047C04608B500F09BFFFFF753
:1053A000B3FF0028F9D108BD10B5482394B001938C
:1053B00002AA01AB041CFBF7C1FB002817D1201C7B
:1053C000FFF7B6FF00280DD10B4802A900F072F8D4
:1053D000002803D00021002200F054F8FEF75EFD03
:1053E00014B010BD0021002200F04CF8ECE70021C1
:1053F000002200F047F8E2E7C08E00000520704769
:1054000038B5041C0D1C0848211C00F08FF800283A
:1054100001D0052038BD63882A889A4201D20C2029
:10542000F8E72B80F6E7C046C08E000010B5FEF707
:10543000F3FC041E01D0201C10BDFEF70DFD322030
:10544000FEF706FD0B4800F029F8041E02D0FEF717
:1054500015FDF0E708480949094A0023FFF734FF22
:10546000041EF4D1FEF702FDFA204000FEF7F0FC26
:10547000EDE7C046C08E0000A9530000995300001C
:1054800095530000BFF34F8F024A034BDA60BFF31E
:105490004F8FFEE70400FA0500ED00E042680023AC
:1054A0001370426853704268937042680020D37052
:1054B0007047C046F8B54F464646C0B402684468D7
:1054C000914688460589877A00F040FBA27800263D
:1054D00097421AD063780132591CC9B27F1AA27060
:1054E0007A1E97412A1D53437F424A463940D018BD
:1054F00061702A1C20C0414603F0BBFB00F02EFB6C
:10550000301C0CBC90469946F8BDE3780426002B6D
:10551000F4D023787A1E0133DBB2F91A481E814198
:1055200049420B40D2B22370D4E7C046F8B54F468B
:105530004646C0B403684468984603890E1C9946E1
:10554000877A00F003FBA3780425002B06D100F036
:1055500005FB281C0CBC90469946F8BD21784A46AC
:1055600004324A430131C9B2013B7F1AA3707B1E4A
:105570009F417F42394021704244111D301C1288E6
:1055800003F077FB0025E2E7436898787047C04650
:105590001A4A802189028023D150194B8022D221BE
:1055A000520289005A50C22189005A5001225A6081
:1055B0002F200138C046C046C046C046C046C0463F
:1055C000C046C046C046C046C046C046F1D19A60FB
:1055D0000C4B00221A602F200138C046C046C0463E
:1055E000C046C046C046C046C046C046C046C0468B
:1055F000C046F1D1044B1A707047C04600E100E08C
:1056000000100140200A0020400A0020F0B5304A76
:10561000A02100234900474680B45350A2214900ED
:105620005350A42149005350A621490053508021D2
:1056300049005350822149005350264B1B68002BD0
:1056400036D0254900265458244AB0461268244FC3
:10565000A41A2402240A02E0002D1AD02B1C1A6876
:10566000A24216D8A41AB6181A7CDD69002AF3D013
:1056700042461A7499695A693B68002B1BD0101C6A
:1056800098470028E8D000210022FFF7FBFE002DFC
:10569000E4D1144B14491A780B789A420ED0134A6D
:1056A0009B009E5080218023114A49035B00D1500A
:1056B00004BC9046F0BD081C9047CDE7531CDBB2FC
:1056C000022B01D00B70EAE700230B70E7E7C0461E
:1056D00000100140240A002004050000200A0020D8
:1056E000280A0020340A0020350A0020380A002049
:1056F00000E100E0F0B55F4656464D464446F0B442
:10570000C748C84BC84900681A78097889B003901F
:10571000914200D198E10132D2B2022A00D1002296
:105720001A70C24B9200D158039A8946131C4B44FD
:10573000BB4D1B0201261B0A04962B602E1CBC4B82
:10574000BC4A1B7811680193019A3668BA4B94469B
:10575000BA4F079666461D683F78013EF6B29A46F4
:105760008B46059506978846029100240B1CB4468B
:10577000FF2E31D06546059EE80030180278457846
:105780001E1CAA4221D05100891883780132476833
:10579000D2B29B1AC90079185F1EBB415B421A4006
:1057A0000B78022B00D1B5E0032B00D0BFE0331EF5
:1057B00000D1CEE01C74DB69002BFBD10021002757
:1057C000457888463E1CAA42DDD1331C6646013E20
:1057D000F6B2B446FF2ECDD10293079D954B904E65
:1057E0000698964F049942461A6035603870002931
:1057F00000D0EEE0029D5A46531B5A1E9341DBB285
:105800008C4903930025086856468C4F844B3668B4
:105810003F7882461A688A4805960121029E0497BD
:105820009446002781468846019B013BDBB20193E9
:10583000FF2B00D1B1E00598DB00C0188346002D96
:1058400027D06B68AA682C1CED696046191A0902FA
:10585000090A49454CD88A18226043466760A76008
:105860002374E761002E51D03168301C914205D37A
:1058700080E01968914200D383E0181CC369521A72
:10588000002BF6D1E3612260331CC4611E1C002D85
:10589000D7D15846037842789A42C5D059005A4623
:1058A0005268C9185846C900511801338278DBB2D2
:1058B00003709A426FD00A784C68331C012AE5D1F4
:1058C000227C0692002AE1D18B686360CA68A260DC
:1058D0000869E0604969A16104990029B5D0069B77
:1058E000604663600023191A0902090A4945B2D9C2
:1058F000C31A1B021B0A93424AD2D21A43462260A1
:105900006760A7602374E761002EADD1231CA24617
:105910001E1CBCE74F68002E1BD0311CB74203D1C0
:105920001AE09F4206D0191CCB69002BF9D1371C15
:105930003E1C48E7994210D0371C1D68DB69CB61DB
:10594000002B14D01F687D191D60474645783E1C0A
:1059500039E700273E1C36E7331CF669002E2FD0AE
:105960001D68DB69B046371CCB61002BEAD1457856
:105970003E1C28E78A1A231C3260A246E6611E1CE0
:1059800085E7891A1960E3612260331CC4617DE7F1
:105990002760002261E705708DE7264A029B514689
:1059A00011609E4256D1039D002D53D1234D0023FB
:1059B0002B7009B03CBC90469946A246AB46F0BD60
:1059C000204E0125B56000270026B84606950796AB
:1059D000B3E700224746029B002594464C4615E05B
:1059E0001968A14200D99CE0641A5218D968664629
:1059F0001E60DE69002907D00398DD6117183F0299
:105A00003F0A5F6099601D1C331C371C002BE7D1D7
:105A10000849002201230F6002920393F3E6C04677
:105A2000200A0020340A0020350A0020380A00200D
:105A30002C0A0020240A0020300A0020360A002008
:105A4000FEFF7F000010014000270020B9460490AF
:105A5000384E74E6002E00D160E03468364B374A89
:105A6000344E9A583168364D571A3F023F0A28780B
:105A70000337B84600282ED04346A34200D2231C49
:105A80005C1824022C4BA821240AC9002B485C5026
:105A90001D58AD1A2D022D0AA21A12020335120A40
:105AA000954200D882E71A582F205A500138C04634
:105AB000C046C046C046C046C046C046C046C046B6
:105AC000C046C046C046F1D1802180231D4A8902CC
:105AD0005B00D1506AE78020D1264002B600985181
