:10000000008000206D030000B5030000B70300006E
:1000100000000000000000000000000000000000E0
:10002000000000000000000000000000B903000014
:100030000000000000000000BB030000BD03000042
:10004000BF030000BF030000BF030000BF030000A8
:10005000BF03000000000000BF030000BF0300005A
:10006000BF030000BF030000BF030000BF03000088
:10007000BF030000BF030000BF030000BF03000078
:10008000BF030000BF030000BF030000BF03000068
:10009000BF030000BF030000BF030000BF03000058
:1000A000BF030000BF0300000000000000000000CC
:1000B0000000000000000000000000000000000040
:1000C00010B5064C2378002B07D1054B002B02D02E
:1000D000044800E000BF0123237010BD6800002029
:1000E00000000000E403000008B5084B002B03D01B
:1000F0000748084900E000BF07480368002B03D009
:10010000064B002B00D0984708BDC04600000000F9
:10011000E40300006C0000206800002000000000E4
:10012000164B002B00D1144B9D46402292029A1A86
:10013000924600218B460F461348144A121A00F0CB
:1001400067F80F4B002B00D098470E4B002B00D0C8
:1001500098470020002104000D000D48002802D01F
:100160000C4800E000BF00F02DF82000290000F04E
:100170009FF800F011F8C046000008000080002041
:100180000000000000000000680000208400002043
:100190000000000000000000084B10B5041C002BFC
:1001A00002D0002100E000BF054B1868836A002BD5
:1001B00000D09847201C00F033F8C0460000000033
:1001C000DC03000070B50E4B0E4D0024ED1AAD108F
:1001D0001E1CAC4204D0A300F35898470134F8E742
:1001E00000F0EEF8084B094D0024ED1AAD101E1C6E
:1001F000AC4204D0A300F35898470134F8E770BD2F
:1002000060000020600000206000002064000020EA
:10021000031C8218934202D019700133FAE7704729
:10022000FEE7C0461B4B1B78012B00D070471A4BD2
:100230001B681A07FAD1194AF02312681A4003D032
:10024000102A01D0302A03D1154A12681A4210D060
:10025000124AF02312681A40402AE7D1104A126865
:100260001A42E3D1C12380220121DB00D205D15003
:10027000DCE70C4A0C4B1A600C4B802212021A600D
:10028000044B1B78012BD1D1034B1B681A07DFD01D
:10029000CCE7C046E00F00F0E40F00F0E80F00F0FC
:1002A000EC0F00F0DFFF07C004050040186C0040B1
:1002B000F0B5474680B4F020A0250023400401217A
:1002C000ED0503240133202B0BD0021C1A411142EF
:1002D000F8D0E02676009A19920001335451202B71
:1002E000F3D100240F4F0326A0460F4AA023DB05BD
:1002F00099583A5D01209040021C88438446A12011
:10030000C00065461D5009480A401A50FA200134C1
:10031000400000F00DF8E30F4046A64243415B4227
:100320001C40E2E7E0030000040500000C050000AB
:1003300082B00190019B002B14D0019B0A48013B25
:1003400001930138C046C046C046C046C046C046BC
:10035000C046C046C046C046C046C046F1D1019B1B
:10036000002BEAD102B07047E703000003210A48DE
:1003700002680A430260094802680A4302600849A9
:10038000084A094B9B1A03DD043BC858D050FBDCDC
:1003900006488047064800472405004054050040B1
:1003A000EC0300000000002068000020250200008F
:1003B00021010000FEE7FEE7FEE7FEE7FEE7FEE7BD
:1003C000F8B5C046F8BC08BC9E467047F8B5C046B4
:1003D000F8BC08BC9E4670474300000000000020A7
:0403E00015161718BF
:0803E4003CFDFF7F0100000059
:1003EC000000000000000000000000000000000001
:1003FC0000000000000000000000000000000000F1
:10040C00D803000000000000000000000000000005
:10041C0000000000000000000000000000000000D0
:10042C0000000000000000000000000000000000C0
:10043C0000000000000000000000000000000000B0
:08044C00E9000000C1000000FE
:040000030000036D89
:00000001FF
