:020000021000EC
:10C000000080002075330200BD330200BF33020000
:10C010000000000000000000000000000000000020
:10C02000000000000000000000000000C13302001A
:10C030000000000000000000C3330200C53302000E
:10C04000C7330200C7330200E5D30100C733020043
:10C05000C73302000000000035D00100C7330200E2
:10C06000C7330200C7330200C7330200C7330200E0
:10C07000C7330200C7330200C7330200C7330200D0
:10C08000C733020095C40100C7330200C733020062
:10C090007DC50100C73302004D330200C7330200E3
:10C0A000C7330200C7330200000000000000000098
:10C0B0000000000000000000000000000000000080
:10C0C00010B5064C2378002B07D1054B002B02D06E
:10C0D000044800E000BF0123237010BD8428002025
:10C0E00000000000F837020008B5084B002B03D011
:10C0F0000748084900E000BF07480368002B03D049
:10C10000064B002B00D0984708BDC0460000000039
:10C11000F837020088280020842800200000000052
:10C12000164B002B00D1144B9D46402292029A1AC6
:10C13000924600218B460F461348144A121A00F00B
:10C1400067F80F4B002B00D098470E4B002B00D008
:10C1500098470020002104000D000D48002802D05F
:10C160000C4800E000BF00F02DF82000290003F08B
:10C17000DFFC00F011F8C04600000800008000203D
:10C18000000000000000000084280020C0300020D3
:10C190000000000000000000084B10B5041C002B3C
:10C1A00002D0002100E000BF054B1868836A002B15
:10C1B00000D09847201C00F033F8C0460000000073
:10C1C0008435020070B50E4B0E4D0024ED1AAD10F3
:10C1D0001E1CAC4204D0A300F35898470134F8E782
:10C1E00007F0C2F9084B094D0024ED1AAD101E1CD2
:10C1F000AC4204D0A300F35898470134F8E770BD6F
:10C200007C2800207C2800207C280020802800201A
:10C21000031C8218934202D019700133FAE7704769
:10C22000FEE7C046F0B54E4657464546E0B42249C3
:10C2300089460978002929D0204B214A00249846B4
:10C24000204F0126924603E00134E4B28C421DD215
:10C2500043461B68E5005D192878321C3B68824024
:10C260001342F1D093433B6000F0DAFE2B78524644
:10C270001268311C99401140021C9A4091420AD028
:10C280004B4601341978E4B28C42E1D31CBC904691
:10C290009946A246F0BD6A686978002AF0D0013953
:10C2A0004D426941091A48424141C9B2181C9047A0
:10C2B0004A461178C8E7C046A8280020A4280020D4
:10C2C000CC280020D0280020F8B5124C071C201CD8
:10C2D00000F08EFC002807D10F4D01262B68BE40D0
:10C2E000334202D0B3432B60F8BD381C00F098FEF7
:10C2F0000A4B1A6800280BD032431A602A68084B90
:10C3000016431968201C00222E6000F0EFFBEBE7BB
:10C31000B243F2E7AC280020D0280020CC2800202F
:10C32000A0280020F0B5474680B4061C82B00D1C42
:10C33000141C0720042A03D802B004BC9046F0BDA8
:10C3400000F05CFD00282DD0194B1A4A1E601A4BD4
:10C350001D701A4B1C6000231360194A6C1E136079
:10C36000E4B2002D18D0174903278846002500E0C5
:10C370001C1C6A46E300F31817709570D5709A7804
:10C3800069464A701878424600F042FD0028D3D131
:10C39000631EDBB2002CEBD100210B4A0B4800F0EE
:10C3A0008BFBC9E700F0F6FC0028CDD0C4E7C046FF
:10C3B000A4280020CC280020A8280020A0280020A5
:10C3C000D0280020C9C2010025C201008835020022
:10C3D00070B5094D2B78002B0BD0084E0024326825
:10C3E000E300985C012100F0C9FD2B780134A342E1
:10C3F000F5D8002070BDC046A8280020A428002041
:10C40000BFF34F8F024A034BDA60BFF34F8FFEE753
:10C410000400FA0500ED00E01A4A80218902802319
:10C42000D150194B8022D221520289005A50C22188
:10C4300089005A5001225A602F200138C046C04658
:10C44000C046C046C046C046C046C046C046C046BC
:10C45000C046C046F1D19A600C4B00221A602F20D2
:10C460000138C046C046C046C046C046C046C04669
:10C47000C046C046C046C046C046F1D1044B1A7003
:10C480007047C04600E100E000100140D4280020C1
:10C49000F4280020F0B5304AA02100234900474687
:10C4A00080B45350A22149005350A4214900535055
:10C4B000A621490053508021490053508221490050
:10C4C0005350264B1B68002B36D025490026545864
:10C4D000244AB0461268244FA41A2402240A02E017
:10C4E000002D1AD02B1C1A68A24216D8A41AB6180E
:10C4F0001A7CDD69002AF3D042461A7499695A6998
:10C500003B68002B1BD0101C98470028E8D0002166
:10C510000022FFF775FF002DE4D1144B14491A785F
:10C520000B789A420ED0134A9B009E5080218023A4
:10C53000114A49035B00D15004BC9046F0BD081C71
:10C540009047CDE7531CDBB2022B01D00B70EAE71A
:10C5500000230B70E7E7C04600100140D8280020F8
:10C5600004050000D4280020DC280020E828002052
:10C57000E9280020EC28002000E100E0F0B55F464B
:10C5800056464D464446F0B4C748C84BC8490068B3
:10C590001A78097889B00390914200D198E101326C
:10C5A000D2B2022A00D100221A70C24B9200D15896
:10C5B000039A8946131C4B44BB4D1B0201261B0AE0
:10C5C00004962B602E1CBC4BBC4A1B78116801934F
:10C5D000019A3668BA4B9446BA4F079666461D686C
:10C5E0003F78013EF6B29A468B46059506978846F7
:10C5F000029100240B1CB446FF2E31D06546059EE7
:10C60000E8003018027845781E1CAA4221D051005B
:10C610008918837801324768D2B29B1AC900791809
:10C620005F1EBB415B421A400B78022B00D1B5E084
:10C63000032B00D0BFE0331E00D1CEE01C74DB69B9
:10C64000002BFBD100210027457888463E1CAA42DA
:10C65000DDD1331C6646013EF6B2B446FF2ECDD185
:10C660000293079D954B904E0698964F049942462B
:10C670001A6035603870002900D0EEE0029D5A46FD
:10C68000531B5A1E9341DBB28C4903930025086863
:10C6900056468C4F844B36683F7882461A688A48E3
:10C6A00005960121029E04979446002781468846FC
:10C6B000019B013BDBB20193FF2B00D1B1E0059858
:10C6C000DB00C0188346002D27D06B68AA682C1C9D
:10C6D000ED696046191A0902090A49454CD88A18B9
:10C6E000226043466760A7602374E761002E51D043
:10C6F0003168301C914205D380E01968914200D323
:10C7000083E0181CC369521A002BF6D1E361226042
:10C71000331CC4611E1C002DD7D1584603784278C3
:10C720009A42C5D059005A465268C9185846C9009D
:10C73000511801338278DBB203709A426FD00A78C5
:10C740004C68331C012AE5D1227C0692002AE1D1F3
:10C750008B686360CA68A2600869E0604969A1618A
:10C7600004990029B5D0069B604663600023191A1E
:10C770000902090A4945B2D9C31A1B021B0A93428E
:10C780004AD2D21A434622606760A7602374E761E9
:10C79000002EADD1231CA2461E1CBCE74F68002E04
:10C7A0001BD0311CB74203D11AE09F4206D0191C9E
:10C7B000CB69002BF9D1371C3E1C48E7994210D0B9
:10C7C000371C1D68DB69CB61002B14D01F687D19F5
:10C7D0001D60474645783E1C39E700273E1C36E77A
:10C7E000331CF669002E2FD01D68DB69B046371C5C
:10C7F000CB61002BEAD145783E1C28E78A1A231C1E
:10C800003260A246E6611E1C85E7891A1960E36161
:10C810002260331CC4617DE72760002261E7057058
:10C820008DE7264A029B514611609E4256D1039DD8
:10C83000002D53D1234D00232B7009B03CBC9046F2
:10C840009946A246AB46F0BD204E0125B5600027B3
:10C850000026B84606950796B3E700224746029B96
:10C86000002594464C4615E01968A14200D99CE089
:10C87000641A5218D96866461E60DE69002907D01E
:10C880000398DD6117183F023F0A5F6099601D1C25
:10C89000331C371C002BE7D10849002201230F600D
:10C8A00002920393F3E6C046D4280020E828002033
:10C8B000E9280020EC280020E0280020D8280020CB
:10C8C000E4280020EA280020FEFF7F00001001403D
:10C8D00000270020B9460490384E74E6002E00D19F
:10C8E00060E03468364B374A344E9A583168364DDA
:10C8F000571A3F023F0A28780337B84600282ED03F
:10C900004346A34200D2231C5C1824022C4BA821CE
:10C91000240AC9002B485C501D58AD1A2D022D0A5F
:10C92000A21A12020335120A954200D882E71A5859
:10C930002F205A500138C046C046C046C046C046A7
:10C94000C046C046C046C046C046C046C046F1D1FB
:10C95000802180231D4A89025B00D1506AE7802034
:10C96000D1264002B6009851C126B6009851C02782
:10C9700016488026B6027F00C65106600120186066
:10C980002F200138C046C046C046C046C046C046FB
:10C99000C046C046C046C046C046C046F1D101238D
:10C9A0002B70ADE7FFF738FD44E70948091B196014
:10C9B0000121039107600293011C68E6D42800203E
:10C9C0000010014004050000F428002000E100E010
:10C9D000D8280020F8B54F464646C0B40326351C7B
:10C9E00080460F1C141C994615400720002D03D0CB
:10C9F0000CBC90469946F8BD002A44D0FFF70CFDC8
:10CA0000224B48461860224B221C1E70214B1832C4
:10CA10001C607B00DB19DB006260D218D3186361F5
:10CA20001D4BE2601D601D4B80221D701C4BC02100
:10CA30001D701C4B5203490025706570A77025724C
:10CA40006572A77225746574A7745A50C521890050
:10CA50005858FF24A043C024204358501A60A121F5
:10CA6000114AC90040465050C42189005C580F4803
:10CA70002040C0242402204358500D4B0020D2589F
:10CA80000C4B1A60B4E7034B1A60B1E7DC280020B6
:10CA9000E0280020E4280020D8280020E8280020F2
:10CAA000E928002000E100E000100140FF00FFFF46
:10CAB00004050000D428002010B50B4B1B68002B88
:10CAC0000BD0002A07D0002805D0036808201C7C62
:10CAD000002C04D010BD0720FCE70820FAE75974A9
:10CAE0005A610020F6E7C046E4280020F0B547462A
:10CAF00080B4394B1C68002C08D0002806D00723CE
:10CB0000042905D8181C04BC9046F0BD0823F9E799
:10CB10004369002BFAD0437C012B30D00025A84676
:10CB20002E4B5D681023ED05ED0D2CD1E4186378D4
:10CB3000A5785E1CF6B2AD1B6F1EBD416D422E4046
:10CB40002578B5421DD05D00ED186368ED005D19D4
:10CB50000423002DD6D001232B706860204B214880
:10CB60004746C358E960AB606A61802180231E4A52
:10CB70005B0049032F616670D1500023C2E78846ED
:10CB8000CEE70423BEE7103DEEB273B2002B13DBF9
:10CB90009E08C036144BB600F35803263540ED000E
:10CBA000EB401D06AD0FEDB20023012DBED00823D2
:10CBB000032DBBD01023B9E70F233340083B9B085C
:10CBC0000A4F9B00DB195D6803231E40F600F54009
:10CBD0002D06AD0FE7E7C046E428002000ED00E099
:10CBE000040500000010014000E100E018ED00E045
:10CBF00030B52F4A031C12680820002A2CD0002BC5
:10CC00002AD05969002927D0002119742949486878
:10CC10001021C005C00D22D1521850789478411CC3
:10CC2000C9B2641A651EAC416442214014788C423A
:10CC300013D0440024185068E40004190420002C88
:10CC40000AD00220207063605170802380211A4A2C
:10CC500049035B00D150002030BD0420FCE71038B0
:10CC6000C4B261B2002913DB8908134CC0318900BA
:10CC7000095903242040C000C1400806800FC0B2FB
:10CC800000210128C8D008210328C5D01021C3E7FE
:10CC90000F21214008390948890889000918486886
:10CCA00003210C40E400E0400006800FE7E7C046A7
:10CCB000E428002000ED00E000E100E018ED00E0D5
:10CCC0000B7B002B04D10B680122027103607047BB
:10CCD0004B680022F9E7C04610B50279031C002A10
:10CCE00008D048681A688968841A8C420CD9881858
:10CCF000186008E004688A680868211A914207D819
:10CD0000012218601A7110BD002218601A71FAE72A
:10CD1000A01A1860F7E7C046F0B500281FDB8208AC
:10CD20001A4B9200D218C0B2C02303249B00FF25E7
:10CD30000440E400D6582F1CA7408901BE430D4093
:10CD4000A540341C2C43D4501F231840012383409A
:10CD5000181CC0220D4B520098501860F0BDC0B294
:10CD60000F230340083B0A4A9B089B009B180322A1
:10CD7000FF240240D200DE69251C95408901AE43A4
:10CD80000C409440321C2243DA61DDE700E100E010
:10CD900000ED00E070B5174C4426A35D0820002B81
:10CDA00000D070BD01256D42201C291C202220309E
:10CDB000FFF72EFA4023E554FF224123E254422399
:10CDC000E554062043230321E55425606560A560F2
:10CDD000E56025616561A561E561FFF79DFF802143
:10CDE000C123054A9B000906D1500123A355002009
:10CDF000D7E7C046F828002000600040034A4423DB
:10CE0000D05C431E9841C0B27047C046F82800204D
:10CE1000F0B54F464646C0B4554B041C1818203098
:10CE2000057808207F2D03D80CBC90469946F0BDAC
:10CE3000C8788146002845D10425AC460420082541
:10CE400086009F59013745D0461CB046B54237D9B8
:10CE5000B600F7583E1C01366DD0871CB846BD425F
:10CE60002ED9BF00FE58371C013764D0C61CB0460F
:10CE7000B54225D9B600F7583E1C01365BD0071DD8
:10CE8000B846BD421CD9BF00FE58371C013752D0EE
:10CE9000461DB046B54213D9B6009F593E1C013617
:10CEA00049D0871DB846BD420AD9BF00FE58371C7D
:10CEB000013740D00730854202D9D869013005D00A
:10CEC0000420B1E7002084460425B9E70720C6B254
:10CED000B44686001D192F1C203765469A514E46D0
:10CEE0003D70002E02D118183C3004708A78002A58
:10CEF00016D1E0224D785200A018A022AD0080008B
:10CF0000D2058550CA78002A17D167467AB29B1895
:10CF10003C330A78197892010A431A70002083E79B
:10CF2000A027A000FF05E022C019D20085580226E4
:10CF3000B5438550E6E74046C9E763465AB20D4E11
:10CF40009200A2239219DB00D0580D780A492402DE
:10CF50000140F82040010440C020D1502D0480023F
:10CF6000D158284004430C43D45000205CE7C0460D
:10CF7000F828002000600040FFE0FCFFF0B5254AE3
:10CF8000151820352C7863B2032B17DDD3183C33EA
:10CF90001B789B09032B30D0012B37D0C022920283
:10CFA000A023DB058000C018E023DB00C4581A4929
:10CFB0002140C150C1580A43C250F0BD032CFCD8D7
:10CFC00016489C002418A220C00027580126374389
:10CFD00027501C1C4034A4001048A4B2002727503E
:10CFE0000029EAD00021695689008A58002AE4D035
:10CFF000C1229E4092008650DFE7A223A022DB00E0
:10D00000D205D258012383401A42C7D1802292020E
:10D01000C6E7C046F8280020FFFFFCFF0060004084
:10D02000A223A022D205DB00D358C340181C012341
:10D0300018407047F0B557464E464546E0B4CF4AD3
:10D0400000241368012B00D1BDE0CD4B1A68012AE2
:10D0500000D1C6E0CB4B1F68012F00D1D1E0CA4BF5
:10D060001A68012A00D1DCE0C84B00251F68012F97
:10D0700000D1E7E022070BD0E30700D5F8E0A707CF
:10D0800000D504E1620700D50FE1230700D5E3E0F6
:10D09000002C04DB1CBC90469946A246F0BDBC4C5B
:10D0A0004023E35C5AB201321DD0DBB2C022181C0F
:10D0B000904322182032127852B292001259002A5C
:10D0C00011D0A027FF058600F619E027FF00F759C9
:10D0D0009909BF03BB0F012787403D4200D1FBE008
:10D0E000022B00D133E14123E35C5AB201321DD05F
:10D0F000DBB2C022181C904322182032127852B2A0
:10D1000092001259002A11D0A027FF058600F619B7
:10D11000E027FF00F7599909BF03BB0F012787409C
:10D120003D4200D1D1E0022B00D1F6E04223E35C86
:10D130005AB201321DD0DBB2C022181C9043221813
:10D140002032127852B292001259002A11D0A02730
:10D15000FF058600F619E027FF00F7599909BF037C
:10D16000BB0F012787403D4200D1CFE0022B00D109
:10D17000D7E04323E35C5AB2013200D18AE7DBB245
:10D18000C022181C904322182032127852B292000A
:10D190001259002A00D17DE7A0278400FF05E02670
:10D1A000E419F600A6599909B603B30F0126864083
:10D1B000354200D197E0022B00D06BE7032900D164
:10D1C000F3E0904766E7C1217248890041580B425D
:10D1D00000D13AE76A4B14601A680124012A00D092
:10D1E00038E7C1226B499200895802220A4200D1D5
:10D1F00030E700211960634B14431F68012F00D0F2
:10D200002DE7C12263499200895804220A4200D1C5
:10D2100025E7002119605C4B14431A68012A00D0ED
:10D2200022E7C1225B499200895808220A4200D1B4
:10D230001AE700211960554B14431F680025012F80
:10D2400000D017E71D6080231B061C43A022A223E9
:10D25000DB00D205D5580DE74E4A4F4BD058D15878
:10D260004B4BC0048903C00E890FDB6898470FE75A
:10D27000484AA223DB00D058D158454BC00489034B
:10D28000C00E890F1B689847A70700D4FAE6414AE9
:10D29000424BD058D1583E4BC0048903C00E890F71
:10D2A0005B689847620700D4EFE63A4AA323DB00A5
:10D2B000D058D158364BC00489039B68C00E890FE3
:10D2C0009847230700D4E3E6C6E7032B00D02DE7F9
:10D2D00003296CD0904729E7032B00D003E70329EB
:10D2E00060D09047FFE6032B00D0D3E6032900D09F
:10D2F00067E70225E023DB00E758294E2D043E4076
:10D30000E650E6583543E5509047C3E6032B00D07E
:10D310002FE7032960D090472BE70329DAD18C4609
:10D3200047E00329F7D18C46E023DB00F7589A4603
:10D330001B4BB8461F1C43461F405346F750F75837
:10D3400063461B041F435346F750904711E70329D8
:10D35000C7D18C46E023DB00F7589A46104BB846FD
:10D360001F1C43461F405346F750F75863461B04A3
:10D370001F435346F7509047B5E6C0460061004052
:10D3800004610040086100400C6100407C61004085
:10D39000F8280020006000401C0500001405000073
:10D3A000FFFFFCFF02239C46D4E70D1CA2E70223EB
:10D3B0009C46E023DB00F7589A46094BB8461F1CF1
:10D3C00043461F405346F750F75863461B041F431C
:10D3D0005346F7509047A9E602239C46A4E7C0466F
:10D3E000FFFFFCFF10B5504BC12292009A5884B049
:10D3F00090054AD54D4A1168002946D00021116098
:10D400008121C222920089009950494B5A7D002AFD
:10D4100000D184E0022269460A7043489021C90085
:10D4200042586C4642500392DA7CD86822720190CE
:10D430000022DA74196868465B6898473D4A1368A9
:10D44000002B10D03A4B188A997C81424BD900218D
:10D4500011601A8A9868815C1A8A013292B21A8223
:10D46000354B314AD150354B1A68002A0BD0002277
:10D470001A602F4B5A7D002A02D02B4A01211160DD
:10D48000DA7C002A3ED104B010BD274AC1239B009C
:10D49000D3585907D2D52A4B19680029CED000217C
:10D4A0001960A324224BE400187DD96812590A544C
:10D4B0001A7DD87C0132D2B21A751A7D9042BDD144
:10D4C0005A7D002A02D11F4A01201060164881248B
:10D4D000C222A400920084501A7D6C460120207064
:10D4E00022720191A4E7002010600029BBD09C6843
:10D4F0006A46107011729874196801945B686846E6
:10D500009847B0E71A7D684601210170D968027218
:10D5100000220191DA7419685B689847B3E7094AF9
:10D520000121116076E7C046002000402421004020
:10D53000402900201C2100401C050000442100401F
:10D54000082100400420004029DF704728DF704791
:10D5500030B5021C83B0002806D0112806D10F4B2D
:10D56000082219680A431A6003B030BD0C490D4CFB
:10D570000B7824689800C3189B00CB18D968181C36
:10D580004D0069188D0019795B690094064C0C30C8
:10D590002C59A047054B04221A70E5E73C2A0020CD
:10D5A00058290020482A00202C2A0020412A002047
:10D5B000F0B556464D4644465F46F0B45C4D85B0E6
:10D5C0002C785C4E012C00D186E0002C6CD0022C13
:10D5D00016D0032C0DD1584B1868FFF7B7FF021E69
:10D5E00007D0112800D07FE0544B08221C6822434A
:10D5F0001A6005B03CBC90469946A246AB46F0BDC9
:10D6000033784E4F9A00D3189B00F31804333968CF
:10D61000DA68994680235B0503911969101C090497
:10D62000090C92469B4605F0CFFE434B4A461860D4
:10D630005B46196980465388504601380904C01872
:10D64000090C05F0C1FE804549D0039C03239C438F
:10D650003B4B3C601B68002B02D1022323425ED06F
:10D66000384B00221A70384B586980235B05421CE6
:10D6700050D019690904090C05F0A6FE80235B054A
:10D680001A691969431E1004000C09045843090C57
:10D6900005F09AFEFFF75AFF021EAAD0112823D1E7
:10D6A00008231C433C60A4E7284B1C60284B1C60EB
:10D6B0007378002B9DD033789A00D3189B00F6180E
:10D6C000F288244B1A603379032B25D0042B23D006
:10D6D000012B00D08DE72B7000F0CEFB89E703997A
:10D6E000012399430C43B3E733781A4C9900CB18C4
:10D6F0009B00F618F16824684F00791873698F0051
:10D7000031790094144C301C0C303C59A047042350
:10D710002B706EE75869B1E700F020F869E7094A15
:10D7200040461370FFF712FFFFF712FF61E7C04694
:10D73000412A002058290020542A00203C2A002099
:10D74000502A0020402A0020001000104C2A0020FF
:10D75000242A0020482A00202C2A0020F8B55F4601
:10D7600056464D464446F0B4464A47481378990019
:10D77000CB189B00D318DD688022520511699146B1
:10D780006A005219920082185689108952687043B3
:10D790001C6980181E89DA883C4B97199B46904675
:10D7A00000235A46090482461360090C201C3F19C5
:10D7B00005F04EFE002906D14A4613699BB29845F2
:10D7C00025D0574521D0022D21D080256D0529690E
:10D7D00030190904090C05F03BFE2D4B890819602E
:10D7E0002969574506D00904090C381C05F030FE9C
:10D7F00000291CD1274B02221A70FFF7D9FE3CBC2E
:10D8000090469946A246AB46F8BD002EDBD1802358
:10D810005B051969201C0904090C05F0D5FD1E4B98
:10D82000032218601B4B1A70FFF7C2FEE7E7296955
:10D8300052462B6990B289B2984605F0C5FDBCB23C
:10D840004346061C99B2201C05F0BEFDB6B280B25C
:10D8500086420DD02B692969201C89B21D0405F070
:10D86000F7FD2D0C89B26D1AAD085B461D60C1E74E
:10D87000524613043F041B0C3F0CDB1B9B085A460B
:10D880001360B7E7582900202C2A0020282A0020FE
:10D89000502A0020412A0020542A0020F8B54F4683
:10D8A0004646C0B408AC24880427A4461B4C6578BF
:10D8B000261C0A2D2DD02478A0466419092C00D9E5
:10D8C0000A3C14277C4334196261221C20710C32FB
:10D8D000B94681C981C2E380114B60461A7801358F
:10D8E000002720817570BA4213D142464C465443FA
:10D8F00036190C4AF18811603279032A07D0042ABC
:10D9000005D0012A05D11A70FFF752FE01E0FFF79A
:10D9100025FF381C0CBC90469946F8BD58290020BC
:10D92000412A0020482A002070B5254B08211A689A
:10D930000C1C82B0144009D08A431A60214B1A781B
:10D94000214B9200D358984702B070BD1F4D2B78E1
:10D950009800C018800028180179031D042929D0D7
:10D96000C2681B695600B218194E920036680C3016
:10D970000096184E96590022B0472A78012093004D
:10D980009B189B00EB181C71DC80D8601C615C61EB
:10D990001C816B780132013BD2B26B700A2A06D02F
:10D9A0002A700D4B00221A70FFF702FECCE700230D
:10D9B0002B70F6E7084B01221A70FFF7F9FDC3E759
:10D9C0003C2A0020402A0020A035020058290020CF
:10D9D000482A00202C2A0020412A002030B5224B62
:10D9E00083B0586980235B05411C3BD01969090449
:10D9F000090C05F0E9FC80235B051C6919691A69AB
:10DA0000431E2004000C5843184B09041B68090CE2
:10DA100092B292085943FFF797FD021E06D01128D3
:10DA200006D1134B08221C6822431A6003B030BD94
:10DA30001049114C0B7824689800C3189B00CB1830
:10DA4000D968181C4D0069188D0019795B6900941C
:10DA50000A4C0C302C59A047094B04221A70FFF7CE
:10DA6000A7FDE3E75869C6E700100010542A00201C
:10DA70003C2A002058290020482A00202C2A002077
:10DA8000412A002030B580235B0522491A690C68C1
:10DA90001204120C013C54431F4A83B05069411CCC
:10DAA00035D019690904090C05F08EFC80235B054B
:10DAB00019691A4B09040138090C41431A68201CE2
:10DAC000FFF742FD021E06D0112806D1144B082292
:10DAD0001C6822431A6003B030BD1249124C0B7807
:10DAE00024689800C3189B00CB18D968181C4D00F7
:10DAF00069188D0019795B6900940C4C0C302C5915
:10DB0000A0470B4B04221A70FFF752FDE3E7586958
:10DB1000CCE7C046542A002000100010502A0020F4
:10DB20003C2A002058290020482A00202C2A0020C6
:10DB3000412A002030B51F4C0822236883B01A42C6
:10DB400015D11D1CAB0702D501231D4325601A4BBF
:10DB500002221A70194B1868FFF7F8FC021E04D055
:10DB600011280DD108231D43256003B030BD934318
:10DB70002360114B1A78124B9200D3589847F4E760
:10DB80001049114C0B7824689800C3189B00CB18DF
:10DB9000D968181C4D0069188D0019795B690094CB
:10DBA0000A4C0C302C59A047094B04221A70FFF77D
:10DBB000FFFCDAE73C2A0020402A0020542A0020FB
:10DBC000A035020058290020482A00202C2A0020D5
:10DBD000412A0020F0B5294C8026237876059A004A
:10DBE000D3189B00E3181A89DD880433DB68316998
:10DBF000AD18ED18090483B0090C281C05F028FCA9
:10DC00001F4B0F1C5869411C35D031690904090CA0
:10DC100005F0DAFB80235B05196901380904090C5A
:10DC20004143184BC9191A68281CFFF78DFC021EC6
:10DC300006D0112806D1144B08221C6822431A6012
:10DC400003B0F0BD23789900CB189B00E418E3687B
:10DC500021795E00F3189E00201C63690B4C0C3088
:10DC6000246800940A4C3459A0470A4B04221A70C5
:10DC7000FFF79EFCE4E77069CCE7C0465829002016
:10DC800000100010282A00203C2A0020482A0020EA
:10DC90002C2A0020412A002030B5154B83B018688B
:10DCA000FFF754FC021E06D0112806D1114B0822A2
:10DCB00019680A431A6003B030BD0F490F4C0B7846
:10DCC00024689800C3189B00CB18D968181C4D0015
:10DCD00069188D0019795B690094094C0C302C5936
:10DCE000A047084B04221A70FFF762FCE3E7C04626
:10DCF000542A00203C2A002058290020482A0020CD
:10DD00002C2A0020412A002070B52B4C08232568BE
:10DD100082B02B4209D09D43284B25601A78284BAE
:10DD20009200D358984702B070BD244B01221A705C
:10DD3000244B5869431C3AD080235B0519690904B8
:10DD4000090C05F041FB80235B051E6919691A69FE
:10DD5000431E3004000C58431B4B09041B68090C7C
:10DD600092B292085943FFF7EFFB021EDBD0112855
:10DD700003D108231D432560D5E71449144C0B78C3
:10DD800024689800C3189B00CB18D968181C4D0054
:10DD900069188D0019795B6900940E4C0C302C5970
:10DDA000A0470D4B04221A70FFF702FCBBE780234B
:10DDB0005B055869C7E7C0463C2A0020402A00207E
:10DDC000A035020000100010542A0020582900201D
:10DDD000482A00202C2A0020412A002030B5204B60
:10DDE00083B0586980235B05411C37D01969090449
:10DDF000090C05F0E9FA80235B051A691969431ECD
:10DE00001004000C09045843090C05F0DDFAFFF773
:10DE10009DFB021E06D0112806D1124B08221C6859
:10DE200022431A6003B030BD0F49104C0B782468B0
:10DE30009800C3189B00CB18D968181C4D006918AE
:10DE40008D0019795B690094094C0C302C59A0475E
:10DE5000084B04221A70FFF7ABFBE3E75869CAE7E7
:10DE6000001000103C2A002058290020482A0020D9
:10DE70002C2A0020412A0020F0B53E4D83B02B789B
:10DE80009C00E418A40080232C195B050434196954
:10DE9000628889B28A4214D8E168A0889208401842
:10DEA0002169FFF751FB021E06D0112829D1324B00
:10DEB00008221D682A431A606288304B1A6003B03A
:10DEC000F0BD1969A0880904090C521AE1681B69A0
:10DED00040182169801889189AB29208FFF734FB1C
:10DEE000021E06D0112825D1234B08221C6822438C
:10DEF0001A6080235B051A69204B1204120C1A6009
:10DF0000DDE72B789900CB189B00ED18EB68297999
:10DF10005F00FB189F00281C6B69194D0C302D68A1
:10DF20000095184D7D59A847174B04221A70FFF72A
:10DF30003FFBC1E72B78124C9900CB189B00ED18E2
:10DF4000EB6824685E00F31829799E006B690094E1
:10DF50000C4C281C0C303459A0470B4B04221A706F
:10DF6000FFF726FB80235B051A69044B1204120C91
:10DF70001A60A4E7582900203C2A0020242A002007
:10DF8000482A00202C2A0020412A0020F0B55F46B4
:10DF90004D4644465646F0B4734D08232C681F1C6A
:10DFA00085B027405BD17148037880469A00D3182A
:10DFB0009B0043441E1C04360393F2687388013AA5
:10DFC000D218B388D21880235B059B461969684B29
:10DFD00092461868674B814600284FD11F688023FE
:10DFE0005B05196950460904090C05F0EDF98742F3
:10DFF00059D34FD04A46002A4FD1039C2179042996
:10E0000000D1ABE0B3685C4A5C001268E3189C0086
:10E0100033690092594A301CA45808300022A047A6
:10E0200040460278012093009B189B0043444C46D5
:10E03000D86049464846DC801C8119714446186105
:10E04000586163780132013BD2B263700A2A55D01D
:10E0500022704B4B00221A70FFF7AAFA07E09C438C
:10E06000484B2C601A78484B9200D358984705B01B
:10E070003CBC90469946A246AB46F0BD1B680904DD
:10E08000090C5046029305F09FF9029B984238D044
:10E090001F1CA4E74846002805D03A4B03221A70FB
:10E0A000FFF798FDE3E7394B00221A60354B022257
:10E0B000381C1A70FFF74AFA021ED8D0112819D05E
:10E0C00041460B789900CB189B004344D9682A4CF1
:10E0D0004D00246869188D00181C19795B6900943B
:10E0E000264C0C302C59A047254B04221A70FFF700
:10E0F0005FFABCE708231C432C60B8E700232370B9
:10E10000A7E7224B1F60012323432B601D4B1F7089
:10E110001F4B5869411C1BD05A4611690904090C50
:10E1200005F052F980235B051A691969431E100432
:10E13000000C09045843090C05F046F9FFF706FAEC
:10E14000021E94D0112806D109231C432C608EE7AF
:10E150005B465869E6E744462378B3E7084B01225B
:10E160001A70FFF725FA82E73C2A00205829002080
:10E17000282A0020542A0020482A00202C2A002087
:10E18000412A0020402A0020A0350200502A002009
:10E1900000100010F0B54F464646C0B47E4D08232F
:10E1A0002C6883B0234200D08FE07C4B1A68561C49
:10E1B0001E607B4B1F68002F4BD17A4A1378904624
:10E1C0009A00D3189B009946C1444F4604378023D8
:10E1D0005B05F86819697B880138C018BB88090499
:10E1E000C018090C05F0F0F8864200D280E06E4BB2
:10E1F00000D179E01E68002E00D194E00122131CAA
:10E20000234000D089E022432A60684A1370684B9B
:10E21000586980235B05411C00D1B2E019690904EB
:10E22000090C05F0D1F880235B051A691969431EB2
:10E230001004000C09045843090C05F0C5F8FFF759
:10E2400085F9021E49D0112860D109231C432C6096
:10E2500043E0564B0421197080235B0519690904BA
:10E26000090C4A439046524A5069411C3AD01969F8
:10E270000904090C05F0A8F880235B051969013829
:10E280000904090C41433A1C4046FFF75DF9021EA0
:10E2900023D0112836D043490B789800C3189B002F
:10E2A000CB18D968434C4D00246869188D00181CA0
:10E2B00019795B690094404C0C302C59A0473F4BB6
:10E2C00004221A70FFF774F907E09C43374B2C6067
:10E2D0001A783B4B9200D358984703B00CBC904639
:10E2E0009946F0BD5869C7E71B68002B00D085E749
:10E2F0002E4B0222301C1A70FFF728F9021EECD0B8
:10E30000112803D108231C432C60E6E744462378F8
:10E310009900CB189B004344C3E7244B03221A7097
:10E32000FFF758FCD9E74A46117904292BD0BB687E
:10E33000204A5C001268E3189C003B6900921E4A68
:10E340004846A4580C300022A04743461A780120C2
:10E3500093009B189B00434444461E71DE80D860A6
:10E360001E615E611E8163780132013BD2B263702F
:10E370000A2A0ED02270114B00221A70FFF718F9EA
:10E38000ABE758694FE70D4B01221A70FFF710F900
:10E39000A3E700232370EEE73C2A0020542A002044
:10E3A000502A002058290020282A0020402A002036
:10E3B00000100010482A00202C2A0020412A0020AA
:10E3C000A035020070B5274C274D23782E689A009F
:10E3D000D3189B00E318DA6882B051008A18181C21
:10E3E00019795B690096214E920096590C300022F3
:10E3F000B047217800228B005B189B00E3180126B0
:10E400001A71DA80DE601A615A611A81627801310C
:10E41000013AD2B2C9B262700A290BD02170144EEF
:10E42000002333601348144E03703360002A05D173
:10E4300002B070BD002323700021F0E78B00591853
:10E4400089006418E3882B602379032B07D0042B01
:10E4500005D0012BECD10370FFF7AAF8E8E7FFF72E
:10E460007DF9E5E758290020482A00202C2A0020C1
:10E470004C2A0020412A0020242A0020F0B54646DC
:10E480004F46C0B4644D04262C7883B0231CB3439C
:10E490000ED0022811D003280AD1604B08211A6837
:10E4A00011425DD0022C54D0032C4DD0012C4BD006
:10E4B00003B00CBC90469946F0BD022C49D0032C09
:10E4C0005DD0012CF4D1554B08211A6811423BD183
:10E4D000534F54493B7809689A00D2189200BA18F1
:10E4E000D688761AB6B2D680002E6DD1D1684E4B42
:10E4F0004800411889008C46101C117952699846D1
:10E5000091464A4A63461268434400921A680C30A6
:10E5100094464B460022E0473A7893009B189B00B4
:10E52000FB181E71DE80DC601E615E611E817B78DF
:10E530000132013BD2B27B700A2A61D03A700023CB
:10E540002B70FFF735F8B3E78A431A60FFF730F80E
:10E55000AEE7374B1A78374B9200D3589847A7E766
:10E56000354A136801331360032B30D0022CEDD1F0
:10E570002F4B1A78314B9200D358984798E7274B86
:10E5800008211A681142DFD12D4B1C6801341C6030
:10E59000234B1A789600B618B6009E1980225205B1
:10E5A00030691169F2880138338980180904C0186C
:10E5B000090C04F009FF8442C8D328D03379042B16
:10E5C00020D0FFF7FFFE73E7FFF756FC70E7144A11
:10E5D000164C137824689900CB189B00D318DA687E
:10E5E000181C51008A1819795B6900940E4C92002E
:10E5F00014590C300D22A0472E70FEF7D9FF57E7B3
:10E600003E709CE701232B70FEF7D2FF50E70D4BC5
:10E610001B68002BD2D199E7412A00203C2A002018
:10E6200058290020242A00202C2A0020482A0020D3
:10E63000402A00208C3502004C2A0020A035020020
:10E64000542A0020282A0020484B10B500202C24F2
:10E65000185540240022185542241A5344241A53B2
:10E6600054241855562401211A535824D960187679
:10E67000196259639964D9651A705A701A71DA80EF
:10E680001A615A611A815A835A629A629A83DA85A8
:10E690009A63DA631A86DA641A651A665A661A5336
:10E6A000682418556A241A536C241A537C2418556C
:10E6B0007E241A538424195188241A518C241A5107
:10E6C00080241A539024185592241A5398241951CF
:10E6D0009C241A51A0241A5194241A53A424185586
:10E6E000A6241A53AC241951B0241A51B4241A5137
:10E6F000A8241A53B8241855BA201A52C020195009
:10E700001967C4215A50C8215A50BC215A525A671D
:10E710009A67174B1A80174B5869431C22D08023E5
:10E720005B0519690904090C04F04EFE80235B05A2
:10E730001A69831E1004000C58430F4B0F4A1860CF
:10E74000002313600E4A00211360138153810D4A88
:10E75000002011700C4A13600C4A13600C4B042209
:10E760001A6010BD80235B055869DFE75829002037
:10E77000382A002000100010442A0020542A0020CB
:10E780002C2A0020412A00204C2A0020242A002084
:10E790003C2A0020F8B54F464646C0B4314B041C15
:10E7A0001A680D1C0820530703D40CBC90469946E8
:10E7B000F8BD002C52D0002950D02368002B4DD03A
:10E7C000802252051169A68889B207208E42ECD8B2
:10E7D0000F2EEAD9E1880029E7D0234B71431F6847
:10E7E0009846224BC91958698946431C38D011698B
:10E7F0000904090C04F0E8FD802252051169431E4A
:10E800000904090C594307208945CED8B307CCD158
:10E81000174B04201E889946012EC6D00C20C0C577
:10E820007043144925680B185F604550A088013675
:10E830001881E4885C816043136911699BB2C01838
:10E84000013889B2156904F00DFEADB26843434644
:10E85000C7194D461F602E800020A6E70E20A4E7B2
:10E860005069C9E73C2A0020442A0020001000100B
:10E87000382A00202C2A002030B5114B1C680823B0
:10E88000650701D4181C30BD002806D0002A04D02A
:10E890000368002B03D00723F4E70E23F2E7094CAB
:10E8A0002568002DF7D025894068694309186089DB
:10E8B000454360682D18A942EDD213605160E1E72D
:10E8C0003C2A00202C2A0020F0B5474680B41E4C7C
:10E8D000051C246882B00E1C171C0820610703D495
:10E8E00002B004BC9046F0BD002E2BD0002D29D0E4
:10E8F0002A680720002AF3D1144A1468002CEFD0AC
:10E90000696854898846118952684C43A446624418
:10E910009045E5D2002FE3D0B942E1D3FA189142F5
:10E92000DEDB1020B107DBD103221342D8D14446ED
:10E930001442D5D10093291C321C3B1C0120FEF748
:10E94000ADFFCDE70E20CBE73C2A00202C2A00208B
:10E95000F0B5474680B41E4C051C246882B00E1CDE
:10E96000171C0820610703D402B004BC9046F0BD18
:10E97000002E2BD0002D29D02A680720002AF3D1A1
:10E98000144A1468002CEFD06968548988461189AC
:10E9900052684C43A44662449045E5D2002FE3D030
:10E9A000B942E1D3FA189142DEDB1020B107DBD186
:10E9B00003221342D8D144461442D5D10093291CD6
:10E9C000321C3B1C0420FEF769FFCDE70E20CBE78D
:10E9D0003C2A00202C2A0020F0B546464F46C0B401
:10E9E000254C83B02568071C0E1C90460824680738
:10E9F00005D4201C03B00CBC90469946F0BD0029FC
:10EA000006D0002F04D00C68002C03D00724F0E7B8
:10EA10000E24EEE7194D2A68002AF7D02A89688962
:10EA2000496850438446686884446145EED2404654
:10EA30000028EBD04245E9D39C46C4446245E5DB5F
:10EA4000BA0701D01024D4E703221342FAD10A40B6
:10EA50009146F7D159184246381C04F074FD3068CD
:10EA60000C23434342460092ED58301C02214A4693
:10EA70003B1CA847BDE7C0463C2A00202C2A0020AA
:10EA8000F0B546464F46C0B4214A83B01268051C13
:10EA90000E1C0824530705D4201C03B00CBC904660
:10EAA0009946F0BD002830D002680724002AF3D12F
:10EAB000184B1A68002AEFD01A89476858685B8992
:10EAC000904653431B1899469F42E5D21024BB073A
:10EAD000E2D1381A111C04F0BBFC07240029DBD159
:10EAE000301C414604F0B4FC89B20029D4D1002E78
:10EAF000D2D0F719B945CFD3002200920320291CA8
:10EB0000331CFEF7CBFE041CC6E70E24C4E7C04648
:10EB10003C2A00202C2A0020074B1A6808235107A2
:10EB200001D4181C7047002804D0044B5B780360A4
:10EB30000023F6E70E23F4E73C2A002058290020A2
:10EB400010B5074AA023DB05995880221204141C33
:10EB5000A1208C43C0001C5002480A401A5010BD2E
:10EB6000040500000C050000F8B54F464646C0B449
:10EB7000041E112C09D0122839D0132839D014289A
:10EB800039D00CBC90469946F8BD0025012911D01A
:10EB900000291FD00229F4D16B005D191F4B5D19AC
:10EBA0006E78002EEDD01E4B1B68002BE9D0301C78
:10EBB0009847E6E7194F6A005319FE5CFB185B782B
:10EBC0009046002B19D142465319FF18BA78154BBD
:10EBD0005A55E6E71448FEF70BF8104A6B005B192C
:10EBE000D318104A9B78565D9E42CAD1D9E70125B9
:10EBF000CCE70225CAE70325C8E70C4B0A481B6887
:10EC00009900CB1859000A4B1A1C9946FDF76EFF64
:10EC10000028D8D14A461470D5E7C046D42A00202F
:10EC20008C2A0020802A0020902A0020882A002098
:10EC3000842A0020F8B5BD4B1B68DA0700D4F8BD64
:10EC4000BB4B1C78172CFAD8BA49A2008A589746B1
:10EC5000B94AA023DB0599588022D203141CA120B5
:10EC60008C43C0001C50B5480A401A50B44B0022D7
:10EC70001B68B4489900C918FDF738FFDFE7A023E7
:10EC8000F021DB054904AD4A9950A1220021D200B0
:10EC90009950D4E7A84AA023DB0599588022D203D3
:10ECA000141CA120C0008C431C50A4480A401A50D8
:10ECB000A34B00221968A348FDF718FFBFE7A24A3B
:10ECC000E020126840049043A121A022D205C9008F
:10ECD00050509A480026984C16501459F0256D044F
:10ECE00065408024A403254000D118E154501650FB
:10ECF000032108221970924B92481968514300224F
:10ED0000FDF7F4FE9BE7904AE02012684004904330
:10ED1000A121A022D205C900505088480026864C67
:10ED200016501459F0256D0465408024A403254035
:10ED300000D1E0E05450165004212822DAE7A02345
:10ED4000A122E021DB05D20049047C4880249950AF
:10ED5000A403002119501C50995070E77B4D281CCA
:10ED6000FDF746FF11231C1B00D1B5E0002800D0A1
:10ED7000B2E0754E80231B043360012C00D1D3E038
:10ED8000C8206421604304F01FFB6D4B002219680A
:10ED90004143281CFDF7AAFE3168F0235B041940AB
:10EDA000A022D3056FE7684BF0211B684904994303
:10EDB000A023DB05A122D2009950604A002199507E
:10EDC0003DE7614AE020126840049043A121A0225F
:10EDD000D205C900505059480027574D1750555972
:10EDE000F02676046E408025AD032E4000D18AE0E7
:10EDF000555017502822022C6BD01C707BE7A023A3
:10EE0000F021DB054904D5E74F4AE02012684004B1
:10EE10009043A121A022D205C900505047480026A6
:10EE2000454C16501459F0256D0465408024A40308
:10EE3000254065D05450165005221A70404B0022D0
:10EE4000196840484900FDF751FEF8E63E4AE020C7
:10EE5000126840049043A121A022D205C90050505D
:10EE600036480026344C16501459F0256D04654080
:10EE70008024A40325404FD05450165006221A7007
:10EE800016E7A023A122C021DB05D20049042B48AC
:10EE9000C0249950E403002119501C509950CEE62B
:10EEA000294BE0211B6849049943A122A023DB05DB
:10EEB000D2004AE7A023A122D021DB05D2004904D9
:10EEC0001E4880249950E403002119501C50995089
:10EED000B5E612221C700EE71B4BF0201A684004A6
:10EEE0001040A021A122C905D20088501348002259
:10EEF0000A501A60A3E61450555004220421F9E682
:10EF00001450555098E7155056500422022C00D04A
:10EF100073E702221C70EEE614505550AEE7145011
:10EF2000555002220321E5E6191C39E77C2A00200E
:10EF3000B02A0020B4350200040500000C050000D2
:10EF4000882A0020582A0020782A0020B42A00208D
:10EF500008B50378112B06D0122B12D0132B12D028
:10EF6000142B12D008BD00235A00D318084AD31816
:10EF700058780028F6D0074B1B68002BF2D0984732
:10EF8000F0E70123F0E70223EEE70323ECE7C046B6
:10EF9000D42A00208C2A0020002303280ED8A22384
:10EFA000A022DB00D205D258064B8000C3580120B6
:10EFB0009840031C93435A1E9341DBB200200B7010
:10EFC0007047C0467836020070B5DC4B041C1B68E5
:10EFD0000020DA0700D470BD172CFCD8D84AA30053
:10EFE000D3589F46D74AA023DB0599588022D203E5
:10EFF000141CA1208C43C0001C50D3480A401A5056
:10F00000D24B00221B68D2489900C918FDF76EFD4B
:10F01000E1E7CC4AA023DB0599588022D203141CD7
:10F02000A120C0008C431C50C7480A401A50C74B4F
:10F0300000221968C648FDF759FDCCE7C54D281CCC
:10F04000FDF7D6FD11231C1B00D14EE1002800D096
:10F050004BE1C14E80231B043360012C00D17FE1C2
:10F06000C8206421604304F0AFF9B84B002219684E
:10F070004143281CFDF73AFD3168F0235B04194039
:10F08000A022D305B04A9950A1220021D200995064
:10F09000A1E7A023F021A122DB054904D200995069
:10F0A000A94A00219950AD4B12221A70002092E714
:10F0B000A023A122E021DB05D200A348490480243B
:10F0C0009950A403002119501C509950A34B1322AE
:10F0D0001A7000207FE79C4AA023F021DB05490439
:10F0E0009950A1220021D20099509C4B00201C7005
:10F0F00071E7994BF0211B6849049943A022A12391
:10F10000D205DB00D150904900235350934A002090
:10F11000137060E7904BE0211B6849049943A122DA
:10F12000A023DB05D20099508749002685485E5010
:10F130001858F0256D04454080208003054000D11B
:10F14000F1E098505E502823022C00D1F3E0834A6E
:10F1500014707E4A7E48116800225943FDF7C6FCB0
:10F1600039E7794AA023F021DB0549049950A1220F
:10F17000D20000219950794B0C221A7000202AE706
:10F18000A023A122D021DB05D2006F4849048024AE
:10F190009950E403002119501C5099506F4B1422D0
:10F1A0001A70002017E76C4BE0211B684904994353
:10F1B000A122A023DB05D2009950634900256148B4
:10F1C0005D501858F02464044440802080030440BB
:10F1D00000D199E098505D50082303215F4A1170D7
:10F1E000B7E75D4BE0211B6849049943A122A023A6
:10F1F000DB05D20099505449002552485D501858FB
:10F20000F0246404444080208003044000D17FE067
:10F2100098505D5028230421E0E74F4BE0211B6804
:10F2200049049943A122A023DB05D2009950464905
:10F23000002544485D501858F02464044440802060
:10F240008003044069D098505D50444B05221A70E9
:10F250003E4B002219683E484900FDF747FCBAE6DC
:10F260003D4BE0211B6849049943A122A023DB0503
:10F27000D20099503449002532485D501858F02486
:10F280006404444080208003044049D098505D507D
:10F29000324B06221A70CAE62F4BE0211B68490444
:10F2A0009943A122A023DB05D2002748802499504E
:10F2B000A403002119501C509950284B07221A70A2
:10F2C000002088E6A023A122C021DB05D2001E4831
:10F2D0004904C0249950E403002119501C5099504E
:10F2E0001E4B15221A70002075E61B4BF0241A687D
:10F2F00064041440A021A122C905D2008C50124CF4
:10F3000000220A511A6066E658509C50022364E7B6
:10F3100058509C500421042360E758509C5094E7B7
:10F3200058509C50B4E758509D500423022C00D0F4
:10F330000DE702230BE7122309E7C0467C2A0020D1
:10F3400014360200040500000C050000882A002085
:10F35000582A0020B42A0020782A0020B02A002051
:10F36000191C8DE6214B10B51960214B041C186047
:10F37000204B00201A60A3070FD51F4B0D221A70D7
:10F380000E22DA700F229A7110225A721B484A0814
:10F390000421FCF7C7FF00281ED0E3070CD5A023EB
:10F3A000F022A121DB055204C9005A50144900245F
:10F3B0005C50A321C9005A50002800D010BD11484C
:10F3C0000021114AFDF778FB0028F7D101210F4AEF
:10F3D0000F48FDF771FBF1E7FCF7FAFF0028DCD1DD
:10F3E00000210C4A0C48FDF767FBD6E7882A00206D
:10F3F0007C2A00208C2A0020D42A00208C3602008F
:10F400000C0500008836020035EC010041EB0100DC
:10F41000AC36020051EF010074360200031C0720D5
:10F42000032B00D97047012A13D0012917D00029D6
:10F4300008D0022919D15900CB180D490020CB184A
:10F440005A70EFE75900CB1809490020CB189A7081
:10F45000E8E700220129E8D11A1C0D32D2B2590086
:10F46000CB18034900205A54DCE70720DAE7C046EE
:10F47000D42A00201E4BA022D205D2581D4B1A4080
:10F480000023C10701D5C0239B021343A021184AC2
:10F49000C9058B50E023184ADB00D158154B1940A1
:10F4A0000023820701D5C0239B021943124AE0239F
:10F4B000DB00D150114AD1580E4B194000234207AE
:10F4C00001D5C0239B0219430C4AE023DB00D15035
:10F4D0000B4AD258074B1A400023010701D5C0231D
:10F4E0009B0213430649E022D20000208B50704754
:10F4F00044070000FFFFFCFF480000504C00005094
:10F500005000005008B50320FFF7B4FF031C002093
:10F51000002B04D0981F421E90414042184008BD65
:10F5200010B50388102B08D0112B05D1294A136878
:10F53000013B1360002B07D010BD264C2368002B25
:10F5400011D001332360F7E7002002210122FFF7E9
:10F5500065FF00282BD0072829D01F4B1B68002BE4
:10F56000EAD09847E8E7002000210122FFF756FF84
:10F57000002808D0072806D0174B1B68002B00D0A6
:10F5800098472368DDE7012002210722FFF746FFA5
:10F59000002801D00728EFD1002002210422FFF724
:10F5A0003DFF0028EDD00728E6D12368C9E70120F8
:10F5B00002210722FFF732FF002801D00728CCD113
:10F5C000002000210A22FFF729FF0028B4D00728D5
:10F5D000C3D1B1E7E42A0020E02A002010B5234B74
:10F5E00084B00C1C186016D000206946FFF7D4FCCC
:10F5F000002801D004B010BD012002A9FFF7CCFC07
:10F600000028F7D16A46137A002B29D16A4613786D
:10F61000002B28D12370164B00201B68002BE9D14A
:10F6200002210122FFF7FAFE002801D00728E1D1CC
:10F63000012002210722FFF7F1FE002801D0072850
:10F64000D8D1002000210A22FFF7E8FE031C002089
:10F65000002BCFD0D81F421E904140421840C9E72E
:10F6600002232370D7E70B232370D4E7E02A00207E
:10F67000E42A002076DF704778DF70477ADF704732
:10F680007CDF704760DF70473CDF704748DF7047C2
:10F6900008B500210022FCF7B3FE08BD08B50B49F0
:10F6A0000B48FDF719FBC1B20A4802F0A3F8082382
:10F6B000021C9A4309D0084B984206D0074B984247
:10F6C00003D000210022FCF79BFE08BD502B002038
:10F6D000482B0020942D002004300000013400004D
:10F6E00010B5041CFEF7CAFE201C01F083FC10BDFF
:10F6F00010B5041C211C204802F0CAF8211C1F4828
:10F7000001F062FF201C02F0D9FB201C03F0D8F9A5
:10F71000201CFFF705FF2388112B1FD0552B0ED07F
:10F72000102B03D0201C01F00BFC10BD0720FFF7AD
:10F730004BFC00281AD1A288114B1A80F2E7A3795A
:10F74000002BEFD10E4B13211888FFF793FF0028F1
:10F75000E8D000210022FCF753FEE3E7084B01222A
:10F7600052421A80074B00221A70DBE70021002268
:10F77000FCF746FEDFE7C046642B0020942D0020F6
:10F780006C280020492D002008B50378002B00D0FC
:10F7900008BD064B3B211888FFF76CFF0028F7D007
:10F7A00000210022FCF72CFEF2E7C0466C28002066
:10F7B000F0B556465F464D464446F0B43F4E8DB0D8
:10F7C000301C694602F094FA002867D169460B782C
:10F7D000002B03D03A4F3D78002D06D00DB03CBC35
:10F7E00090469946A246AB46F0BD364A02AC137825
:10F7F000924698464146022399430B1C5A42534174
:10F800006370414601232A1C8B426A41A2702E4A32
:10F81000090153182570E570257158888A5C20818C
:10F82000A271DA886846A2811A791A30A272082277
:10F83000D2181B7A91465288A373244B2282191C3A
:10F8400008229B4603F07FFE4946CB88A3830B79B1
:10F85000A37643460133DBB2042B24D05246137007
:10F8600059468B791A1C1B32D2B23B2A1ED9213B36
:10F870008B714B795A460133DBB23B2B1BD90023EA
:10F880005371301C211C02F095F9002810D0082873
:10F89000A4D000210022FCF7B3FD9FE70021002245
:10F8A000FCF7AEFD92E753461D70D9E78A71E8E791
:10F8B00001233B7092E74B71E3E7C046642B0020C5
:10F8C000492D0020482D0020E82A00207028002023
:10F8D00008B507282AD01DD90A2809D00D2806D135
:10F8E000194B1A88194B9A4201D0FFF761FF08BDE6
:10F8F0000020FFF769FB002820D1FFF703FE002856
:10F9000017D1FFF7C1FE0028F1D000210022FCF73B
:10F9100077FDECE70428EAD10B4B13211888FFF799
:10F92000A9FE0823021C9A43E1D0EEE701F0C8FCCF
:10F93000F7E700210022FCF763FDE2E70021002247
:10F94000FCF75EFDD9E7C0466C280020FFFF0000F1
:10F9500010B50C1C82B0002A12D12378152B02D0CE
:10F96000002002B010BD0C48694602F0C1F9002821
:10F970000CD16A461378002BF2D0FFF719FFEFE79E
:10F98000101C00210022FCF73BFDE6E700210022CD
:10F99000FCF736FDEDE7C046642B002008B50028D3
:10F9A00007D0032804D10220FFF70EFB00280DD159
:10F9B00008BD0020FFF708FB00280CD1FFF7A2FDCF
:10F9C00000280DD1FFF760FE0028F1D000210022B1
:10F9D000FCF716FDECE700210022FCF711FDEDE736
:10F9E00000210022FCF70CFDECE7C046F0B55F46B5
:10F9F00056464D464446F0B40B788DB0002B0BD0E4
:10FA0000022B02D1404B00221A700DB03CBC904634
:10FA10009946A246AB46F0BD3C4E6946301C02F00A
:10FA200067F9002860D169460B78002BEDD0364F7E
:10FA30003D78002DE9D1364A02AC137892469846BB
:10FA40004146022399430B1C5A425341637041467D
:10FA500001232A1C8B426A41A2702E4A09015318C5
:10FA60002570E570257158888A5C2081A271DA883A
:10FA70006846A2811A791A30A2720822D2181B7A1B
:10FA800091465288A373244B2282191C08229B465C
:10FA900003F059FD4946CB88A3830B79A3764346EF
:10FAA0000133DBB2042B29D05246137059468B79AF
:10FAB0001A1C1B32D2B23B2A1BD9213B8B714B79CA
:10FAC0005A460133DBB23B2B1BD900235371301C48
:10FAD000211C02F06FF800280DD0082895D00021D5
:10FAE0000022FCF78DFC90E700210022FCF788FC47
:10FAF00099E78A71EBE701233B7086E753461D7057
:10FB0000D4E74B71E3E7C046492D0020642B002069
:10FB1000482D0020E82A00207028002008B5031C8A
:10FB20000A1C0248191CFCF76BFC08BDEFBEADDED9
:10FB3000F0B50020A5B00521EB4A0023FCF74AFFF1
:10FB4000002803D000210022FCF75AFCE7480121DD
:10FB5000E74AFCF7B1FF002803D000210022FCF7A0
:10FB60004FFC0320E349E44AFFF7FCFB002803D0E5
:10FB700000210022FCF744FC14AC0020211CFFF7FC
:10FB80002DFD002803D000210022FCF739FC267847
:10FB90000820023E73425E41D84948220023F6B253
:10FBA00003F09AFB002803D000210022FCF728FC78
:10FBB0000822201C0021FCF72BFB00236360237824
:10FBC00001229343201C2370FFF75CFD002803D023
:10FBD00000210022FCF714FCC94803F0A3FB002815
:10FBE00003D000210022FCF70BFCC64803F0A4FB65
:10FBF000002803D000210022FCF702FC0AAD2E7081
:10FC0000FEF722FD002803D000210022FCF7F8FBBC
:10FC1000281C02F053FE002803D000210022FCF72C
:10FC2000EFFB6846002105225530FCF7F1FA6279B6
:10FC300001231A43E1231A400C231A43CD23134016
:10FC400063710723A3711023E371AF4BAF48149383
:10FC5000211C0123237102F0CDFE002803D00021D6
:10FC60000022FCF7CDFB29780F23994301220A4398
:10FC7000A74F134010221343381C2B7003F06CFC69
:10FC8000391C82B2281CFFF7FBFC002803D000219E
:10FC90000022FCF7B5FBE0208000FFF7EDFC002818
:10FCA00003D000210022FCF7ABFB0822201C00211E
:10FCB000FCF7AEFAC8229200C8235B006280201CC9
:10FCC00000222380A280E380FFF7D8FC002803D025
:10FCD00000210022FCF794FB00213822201CFCF7B5
:10FCE00097FA022323700623E37003232382894BB0
:10FCF000012263610023EB60A2702A7328222A612B
:10FD0000B4226B60AB60AB61EB612B626A610A93FA
:10FD10000093201C00212A1C7F4B00F011FF0028BB
:10FD200003D000210022FCF76BFB03AE00210C2264
:10FD3000301CFCF76DFA794B3079039311237381F2
:10FD40000F239843012210431840202101433171B1
:10FD500000217171B171F179714899430A431340DF
:10FD600010210B43F371311C0023337201F0CAFDE3
:10FD7000002803D000210022FCF742FB00211422BE
:10FD8000281CFCF745FA687B0F23012198430843A0
:10FD90001022184010436873A87B9843084318400A
:10FDA0001043A8730020E873287C984301430B405C
:10FDB0001A4300232A740A930122AB605948642332
:10FDC000291C2A712B7301F02FFC002803D000217D
:10FDD0000022FCF715FB40220021201CFCF718FA3A
:10FDE000201C391C02F0A8FA16A8391C02F0A4FA4B
:10FDF0003C4B3B4A069207934B4B06A908933C2386
:10FE0000E05C0F2290432163012101430A4010214D
:10FE10000A43E254201C00223D23E25402F00EF972
:10FE2000002803D000210022FCF7EAFA3F49012311
:10FE3000512764263E488B600B730F604E60FCF7C1
:10FE40003FFF3C4B792159826A2159834821D9834C
:10FE50008A210025598420215D545821D9842421E8
:10FE60005D547821598528215D546921D9852C213B
:10FE70005D549121598630215D54752234215D54A1
:10FE80005A8083214C22DA805987672238215A818F
:10FE90005D543C227D21DA81D9879D541D701D71EE
:10FEA0001D721D731D74DF821D751D761D77DE8624
:10FEB000201C00211C22FCF7ABF9A0239B026360ED
:10FEC000F0231B03A36003232373002323741A4B23
:10FED000201C6361194B1495E58131E0C046C04692
:10FEE0005544332211000000802B0020B836020058
:10FEF0009DF60100CD0C0000D1F801004C2D002032
:10FF0000F1F60100E1F6010051F90100602B00203B
:10FF1000B0360200602800209DF90100EDF90100D3
:10FF2000642B0020942D002088776600502B002041
:10FF3000482B0020E82A002089F7010091F60100F3
:10FF4000A36101F07FFF002803D000210022FCF70D
:10FF500057FA80210C4849020022FCF7C7FD00280F
:10FF600003D000210022FCF74BFA032000F08EFEA4
:10FF7000002803D1FFF78AFB0028FBD000210022D4
:10FF8000FCF73EFAF6E7C046282B0020C046C046E4
:10FF900071DF704772DF704779DF70477DDF704730
:10FFA00065DF7047F0B50588041C83B00F1C161C74
:10FFB0000720012D04D01288901C984202D90C20F1
:10FFC00003B0F0BD2178012904D16178023189188C
:10FFD0008B42F4D3023B9A1A95B238186A466946A6
:10FFE0001580FFF7DBFF0028EAD12378022B18D019
:10FFF000012B11D02B1C0822FE2BE0D83188581C75
:020000022000DC
:10000000785431880020013189B231807A543288A5
:1000100001329B183380D3E763789D42EBD22B1CCF
:10002000E9E76A46138809229D42E5D22B1CE2E7E4
:10003000F0B55F4656464D464446F0B485B0994605
:100040000EAB40CB8A461B88318801930388051C80
:10005000171C8B46002B48D000229046002403E05A
:100060002B880134A3422BDD6B68A10059180422B0
:1000700003A803F068FA03A802A90022FFF790FF83
:10008000002828D169460B7ABB42E9D14246002AB2
:100090002FD032880199D3198B4228DC4A4403A817
:1000A00002A9FFF77DFF002815D16B461A7A338825
:1000B0000121D31833802B8801348846A342D3DC36
:1000C0004246002A11D033885946013B5B1A9BB245
:1000D0000C20FF2B06D905B03CBC90469946A246A1
:1000E000AB46F0BD4A465A4413700020F3E70C209B
:1000F000F1E733880199DA1902328A42F7DC0133D9
:100100009BB2524649463380CA543288013292B279
:100110003280C3E7F0B55F4656464D464446F0B4DC
:10012000002317881380436B85B0061C0D1C141C1C
:10013000002B00D164E11A78022F18D902230B702A
:100140002388112101339BB22380E9542388013392
:100150009BB22380EA54238801339BB22380326B05
:10016000002A00D177E0191C1231B94207D90C20BE
:1001700005B03CBC90469946A246AB46F0BD112165
:10018000E9542388102101339BB22380E95423884A
:1001900001339BB22380D17BE954238801339BB286
:1001A0002380917BE954238801339BB22380517BC8
:1001B000E954238801339BB22380117BE9542388BF
:1001C00001339BB22380D17AE954238801339BB257
:1001D0002380917AE954238801339BB22380517A9A
:1001E000E954238801339BB22380117AE954238890
:1001F00001339BB22380D179E954238801339BB228
:1002000023809179E954238801339BB2238051796B
:10021000E954238801339BB223801179E954238860
:1002200001339BB22380D178E954238801339BB2F8
:1002300023809178E954238801339BB2238051783D
:10024000E954238801339BB223801278EA5423882F
:1002500001339BB223802E22B25C002A00D0D1E071
:100260002D22B25C002A00D0EFE0B278002A00D044
:1002700018E1F278002A14D0D91CB94200D976E7E7
:100280000221E9542388012101339BB22380E954E0
:10029000238801339BB22380EA54238801339BB225
:1002A00023807268002A14D01178DA1CBA4200D96F
:1002B0005DE70222EA5423880A2201339BB223809D
:1002C000EA54238801339BB22380E9542388013305
:1002D00023803389002B00D005E1338A002B00D026
:1002E0006DE1338B002B00D083E1336A002B47D0C4
:1002F00022880C20911DB94200D939E7188882461E
:1003000051460720052900D832E7CD498846D04418
:10031000414689B28846CB498C46884500D827E7B4
:1003200059888846052900D822E7C5498946C1442D
:10033000494689B2614500D81AE7C3498A4504D0C5
:10034000884502D0C24500D912E70521A954228868
:100350001221013292B22280A9542288511C89B202
:100360002180188869180870000A4870D01C80B273
:10037000208059882B1819700532090A597022807B
:10038000726A9046002A30D093882288191D8918F5
:100390000C20B94200D9EBE6991CFE2900D9E7E60A
:1003A0000333AB542388FF2201339BB22380EA54EA
:1003B000238840465A1C92B222800188AA1803332F
:1003C00011709BB2090A517023808288002A0CD0D8
:1003D00081680720002900D1CAE6E81803F0B3F8C5
:1003E000414622888B88D31823802C23F35C002B72
:1003F00000D092E03378002B00D0D9E00020B7E69F
:100400000023ACE6D91C0C20B94200D9B0E6022189
:10041000E95423881C2001339BB22380E8542388AD
:1004200001339BB22380022A00D105E100D8FCE011
:10043000032A00D1FEE0042A00D0F4E00322EA54AB
:10044000238801339BB223800AE709330C20BB4287
:1004500000D98DE602A8FFF79BFD002800D087E6B3
:1004600023880822EA5423881B2201339BB223806D
:10047000EA5420886946013080B22080062228187C
:10048000093103F060F8238868460633027A9BB28C
:100490002380002A00D00122EA54238801339BB232
:1004A0002380E2E604330C20BB4200D960E602A8B8
:1004B000FFF772FD002800D05AE623880322EA5491
:1004C0002388192201339BB22380EA54238868468B
:1004D0005A1C018992B2AA18033311709BB2090AFF
:1004E00051702380C5E6082189198846081C0094AC
:1004F0000197022102222B1CFFF79AFD002800D051
:1005000036E6009401974046062110222B1CFFF787
:100510008FFD002800D1E0E62AE6B26A9046002A64
:1005200000D180E093880233FE2B00D91FE6002122
:10053000894616222C21208892468B460BE04A469B
:1005400053004B44B16A9B00C9188B88884602331C
:10055000FE2B00D90BE601332B542388524601337E
:100560009BB22380EA5420884146431C9BB22380DF
:100570000A88EB1803301A7080B2120A5A70208071
:100580008A88002A0BD0896800294CD0281802F0EC
:10059000DAFF424620889388C01880B220804B46FC
:1005A0000133DBB259469946735C4B45C7D821E706
:1005B000301C291C221C3B1CFFF7F4FCD8E5102240
:1005C00092199046101C00940197032102222B1CC3
:1005D000FFF72EFD002800D0CAE5009401974046A1
:1005E000072110222B1CFFF723FD002800D178E6FD
:1005F000BEE518239B199846181C009401971421F6
:1006000002222B1CFFF714FD002800D0B0E5009457
:1006100001974046152110222B1CFFF709FD0028E9
:1006200000D162E6A4E50720A2E5012AFBD1002261
:10063000EA5405E7E95403E70122EA5400E7C0461B
:100640007FF3FFFF7DF30000FFFF0000F0B54E4693
:1006500057464546E0B496B0041C1F2368460E1C5E
:100660000382002C00D172E0E378590768D500239B
:100670000381636B002B00D136E11A7806AD0223AB
:1006800011212B706B4659766B469A766A46032386
:1006900013810427052203200321236B002B39D06B
:1006A00006AD112129541021E955D97B6F46A95473
:1006B000987B511C6854587B911C6854187BD11C42
:1006C0006854D87A111D6854987A511D6854587A24
:1006D000911D6854187AD11D6854D8790131685435
:1006E0009879013168545879013168541879013189
:1006F0006854D878013168549878013168540131D0
:100700003981587810326854013139811B783A8127
:100710006B5491B22E23E35C002B00D00DE12D230E
:10072000E35C002B00D022E1A378002B00D049E14C
:10073000E378002B30D0CA1C1F2A20D90C2000E0FF
:10074000072016B01CBC90469946A246F0BD048115
:100750000025002E00D1CCE0F378002BF0D1301C26
:100760000EA904AAFFF7D6FC0028EAD169460B7C43
:100770000EAA6846017A281CFFF70CFCE1E706ADDB
:1007800002206854481C023189B280B201272F54DC
:100790006B5491B26A4611816368002B0FD01878B0
:1007A000CB1C1F2BCAD806AD02226A544A1C0A274A
:1007B00092B20231AF5489B26F4668543B812389AB
:1007C000002B00D09AE0238A002B00D01AE1238B63
:1007D000002B00D03CE1236A002B3ED06F463A89C3
:1007E0000C20911D1F29ACD81D880720052DA8D9E4
:1007F000CE4F7F19BFB2BC46CD4FB946BC45A0D93C
:100800005F88BC46052F9CD9C84FB846E044474690
:10081000BFB24F4500D894E7C64FBD4204D0BC4597
:1008200002D0654500D98CE706AD0520A854501CC0
:1008300080B212272F54901C80B26F4638811F88D7
:10084000281807703F0A477004325B8892B2AD18CF
:100850002B7068461B0A6B700181676A002F2FD0CE
:10086000B88869460A89031C0233911CCD180C20F4
:100870001F2D00D965E7FE2B00D962E706AD0133D5
:10088000AB54531C9BB2FF20E85489B26B461981CC
:100890003B8869180B7004321B0A4B7090B2694692
:1008A0000881BA88002A0BD0B968002900D147E72F
:1008B000281802F048FEBA886F463B89D3183B815E
:1008C0002C23E15C002900D0E1E006AD2378002B69
:1008D00000D13EE7201C291C02AA1F23FFF762FB60
:1008E000002800D135E72CE7022201270020002153
:1008F000D3E66F463E82002300223AE7271C1F21E1
:1009000002A8083706AD009088460191381C0221E4
:1009100002222B1CFFF78CFB002800D011E702AB52
:100920004046009301900621381C10222B1CFFF733
:100930007FFB002800D146E703E7481C06AD80B2E4
:1009400002221C276A542F54881C80B2022B00D12B
:10095000E7E076D9032B00D1E6E0042B00D0EFE6E8
:1009600003232B54033189B26A461181D7E609313A
:100970000C201F2900D9E4E60EA8FFF709FB002888
:1009800000D0DEE66F463B8906AD0822EA545A1CC9
:1009900092B21B2102339BB2A9546946E81839313F
:1009A00006223B8102F0CFFD39890EAF3B788A1DCC
:1009B00092B2002B00D00123073189B26846AB54B4
:1009C0000181B1E604310C201F2900D9B9E60EA837
:1009D000FFF7E2FA002800D0B3E66A46118906ADB7
:1009E00003236B544B1C9BB21922EA546F468A1C9A
:1009F0003B8F92B2AD1804312B7089B21B0A6B7019
:100A0000398195E6271C1F2202A9103706AD0091F7
:100A100090460192381C032102222B1CFFF708FB91
:100A2000002800D08DE602A8414600900191381CB4
:100A3000072110222B1CFFF7FBFA002800D1C6E685
:100A40007FE6012B00D07BE628180023037089E79E
:100A5000271C1F2302AA183706AD0092984601935F
:100A6000381C142102222B1CFFF7E2FA002800D0C8
:100A700067E602A9424600910192381C1521102216
:100A80002B1CFFF7D5FA002800D1A4E659E6A76A87
:100A9000002F00D154E6BB880233FE2B00D94DE66F
:100AA0006A46108900229046162291462C2206ADF5
:100AB000924601332B54431C9BB24A46EA54831C92
:100AC0009BB26A4613813A88EB181A700430120AF6
:100AD0005A7080B26B461881BA88002A0ED0B96865
:100AE000002900D12CE6281802F02DFDB8886F46A9
:100AF0003B895246C01880B2A15C3881434601331D
:100B0000DBB298468B4200D3E0E643465F004744A1
:100B1000A26ABF00D719BB880233FE2BC9D90C20AB
:100B20000FE601232B541DE72A541BE77FF3FFFF39
:100B30007DF30000FFFF000073DF704774DF704734
:100B4000F0B54746051C80B488460E20002D00D124
:100B50007BE0002A79D03E49002008703D49069884
:100B60000B603D493D4B18600B1CD0CAD0C313CA63
:100B700013C30021C1CAC1C307223948FBF748FB90
:100B8000384B394A394E1A60394A00219A60301C74
:100B90003822FBF73DFB2B782A1C3370AB781032E0
:100BA000B370EB78F3706B787370331C103312CA28
:100BB00012C3331C0833103A81CA81C3331C183363
:100BC000083212CA12C36F6A002F11D0294B2A4C67
:100BD0007362696A9C600A881A80888898800028F5
:100BE00006D000238F68FA5CE25401338342F9D1C6
:100BF000A86A002814D0214B2148B362A96A9860E2
:100C00008C889C800A881A800023002C05D08F686D
:100C1000FA5CC2540133A342F9D12C23EA5CF254AA
:100C2000286A002806D0174B33622A6A51885980F7
:100C300012881A806968002903D0134B73606D68AD
:100C40007560301C4146FFF701FD04BC9046F0BDC5
:100C5000C02E0020F02D0020242E0020182E002071
:100C60001C2E00206C2E0020482E0020AC2D0020D1
:100C7000A02E0020E42D0020F42D0020C82E0020FE
:100C80007C2E0020C42E0020682E0020F0B54746A0
:100C900080B4A04C88B02070002568460095FDF710
:100CA0003BFF08280BD0002805D10099002907D068
:100CB000994B01221A7008B004BC9046F0BD009513
:100CC000964B0021181C07229846FBF7A1FA944E78
:100CD0007378002B49D12378B278002A56D1914FEE
:100CE0003A68012B58D0022B74D0317B002902D1F5
:100CF000032B00D18AE0317E002902D1042B00D1E0
:100D00008AE0002A03D0033B012B00D8A0E0864BE9
:100D100000221A7002AD1822281C0021FBF778FA75
:100D2000227800232B706B602B72EB60022A00D1BB
:100D3000B0E076D9032A00D1B7E0042A00D0A6E0BB
:100D4000F369316A2B82794B69821A79002A00D1C2
:100D5000BEE03278002A04D0754A1278002A00D109
:100D6000C7E0744B04221A7064E02378012BB3D1DE
:100D700001236C4F3A68002A00D1B6E06E4B012186
:100D800008201970904723783A68AAE7022BF0D020
:100D9000644F3A68012BA8D17378002B18D04146D4
:100DA0004B78002B00D09EE08B78002B00D09AE08F
:100DB000CB78002B00D096E00B79002B00D092E08E
:100DC0004B79002B00D08EE08B79002B00D08AE08D
:100DD00002232370B378002B12D041464B78002BAE
:100DE0007FD18B78002B7CD1CB78002B79D10B79FC
:100DF000002B76D14B79002B73D18B79002B70D1DE
:100E000003232370317B002900D07AE70423237069
:100E1000317E002900D074E74649002323700B700F
:100E20006FE7012A33D16B822B82424B41466960C6
:100E30002A701A70281CFFF77FFE002800D03AE7BE
:100E40003B68002B02D03B4A10789847002032E7DD
:100E50003378002B00D15AE7354B1B78002B00D09C
:100E600055E7314B012119700720904752E733486D
:100E70000222EB60002104232A72C370FFF7E6FB15
:100E8000002800D017E72B4B05221A702278002A81
:100E9000D6D0CFE743466B6001232B707368B168EF
:100EA0002B82244B69821A70C4E7736931696B82A3
:100EB0001E4B29821A79002A0FD03278002A03D0DB
:100EC0001B4A1278002AD2D01A4B03221A70B1E7BB
:100ED0001A7B002A00D03CE743E71A7B002AECD1BA
:100EE000F2E7022307E7012305E713490A7000220E
:100EF000F7E612480222EB60002104232A72C37035
:100F0000FFF7A4FB002800D0D5E60A4B06221A7092
:100F10002278BCE7C02E0020C12E00201C2E00200D
:100F2000242E0020F02D00209D2E00206C2E00206D
:100F3000142E0020D42E00209C2E0020AC2D00204A
:100F400008B50388112B20D0192B09D0102B00D005
:100F500008BD037D012BFBD18288204B1A80F7E767
:100F60008279002AF4D11E4B1B78022B30D027D96E
:100F7000032B1DD0042BEBD11A4B1A701A4B1B6894
:100F8000002BE5D000209847E2E7184B00221A70AA
:100F9000124B82881B889A42DAD10120FFF776FE35
:100FA0000028D5D0124B1B68002BD1D09847CFE733
:100FB0000C4A04201370FFF769FE0028F2D1C7E73E
:100FC000012BC5D10220FFF761FE0028EAD1BFE75F
:100FD0000320FFF75BFE0028E4D1B9E77828002062
:100FE000C02E0020D42E0020F02D0020142E002032
:100FF000182E0020F0B5474680B4023888B001288A
:1010000003D8A34C2378002B03D108B004BC90462E
:10101000F0BD0025684625700095FDF77DFD082888
:1010200007D000286DD10099002903D00123237037
:10103000EBE70095974F0021381C0722FBF7E8F8F3
:10104000954D964E6B78002B62D13378AA78002AA2
:1010500071D1934A90461268012B73D0022B00D1B4
:101060008AE0297B002902D1032B00D19FE0297E51
:10107000002902D1042B00D19FE0002A03D0033BBA
:10108000012B00D8A7E0874B00221A7002AC18226F
:10109000201C0021FBF7BCF832780023237063602A
:1010A0002372E360022A00D1B8E000D88AE0032A64
:1010B00000D1BDE0042A00D0ACE0EB69296A2382AC
:1010C000794B61821A79002A02D11A7B002A07D053
:1010D0002A78002A04D0754A1278002A00D1C5E087
:1010E000734B04221A70201CFFF726FD002808D13C
:1010F00042461368002B00D187E76D4A1078984765
:1011000083E76C4B1B68002B00D17EE798477CE798
:101110003378012B9AD10123614A90461268002A44
:1011200000D19BE0644B0121082019709047414693
:1011300033780A6890E7022BEED0594A904612683D
:10114000012B8ED16B78002B14D07B78002B00D034
:1011500088E0BB78002B00D084E0FB78002B00D027
:1011600080E03B79002B7DD17B79002B7AD1BB7954
:10117000002B77D102233370AB78002B11D07B7812
:10118000002B71D1BB78002B6ED1FB78002B6BD17B
:101190003B79002B68D17B79002B65D1BB79002B83
:1011A00062D103233370297B002900D065E7042333
:1011B0003370297E002900D05FE73D49002333705A
:1011C0000B705AE7012A25D163822382384B67606E
:1011D00022701A7087E72B78002B00D153E7334B2E
:1011E0001B78002B00D04EE72E4B012119700720F1
:1011F00090474BE731480222E3600021042322722A
:10120000C370FFF723FA002800D07AE7284B0522A5
:101210001A703278002A00D16AE764E7012323704C
:10122000AB68676063826B682382214B1A705AE750
:101230002A691D4B696922821A796182002A02D1CA
:101240001A7B002A06D02A78002A03D0174A12787F
:10125000002ACFD0164B03221A7044E716490A70B1
:101260000022F9E6012302E7022300E713480222E5
:10127000E360002104232272C370FFF7E7F900281E
:1012800000D03EE70A4B06221A703278C2E7C04609
:10129000C12E00201C2E0020242E0020C02E002055
:1012A000F02D00209D2E00206C2E0020142E0020FA
:1012B000D42E0020182E00209C2E0020AC2D0020C3
:1012C000F0B54F464646C0B4AE4C89B02378002BEB
:1012D00000D182E0AC4D2B78002B7ED1AB4E337821
:1012E000002B00D07FE00021012768462F70884640
:1012F0000091FDF711FC082808D0002800D078E004
:101300000099002904D0A24B1F7067E04346009368
:10131000A04A0021101C90460722FAF779FF637853
:10132000002B6CD13378A278002A00D07BE09A4958
:101330000A688946012B00D17DE0022B00D195E09F
:10134000217B002902D1032B00D1ABE0217E0029B3
:1013500002D1042B00D1ABE0002A03D0033B012BC8
:1013600000D8B4E08D4B00221A7002AF1822381C4E
:101370000021FAF74DFF327800233B707B603B720F
:10138000FB60022A00D1C4E000D896E0032A00D115
:10139000CAE0042A00D0B8E0226A814BE1697A826F
:1013A0001A793982002A02D11A7B002A06D02278C3
:1013B000002A03D02A78002A00D1D2E0794B0422F7
:1013C0001A70381CFFF7B8FB002812D149460B6889
:1013D000002B02D0734A10789847002009B00CBC4B
:1013E00090469946F0BDFFF7A9FB002800D17AE7A7
:1013F000F4E76D4B1B68002BEFD09847EDE733788F
:10140000012B00D08FE70123634A91461268002A1E
:1014100000D19EE0654B0121082019709047494694
:1014200033780A6886E7022BEED05B4A9146126851
:10143000012B00D084E76378002B15D041464B7810
:10144000002B00D089E08B78002B00D085E0CB7892
:10145000002B00D081E00B79002B7ED14B79002B43
:101460007BD18B79002B78D102233370A378002BAA
:1014700012D041464B78002B71D18B78002B6ED166
:10148000CB78002B6BD10B79002B68D14B79002BDB
:1014900065D18B79002B62D103233370217B002926
:1014A00000D059E704233370217E002900D053E790
:1014B0003C49002333700B704EE7012A25D17B8213
:1014C0003B82384B414679603A701A7079E723784D
:1014D000002B00D146E72B78002B00D042E72F4BA2
:1014E00001211970072090473FE731480222FB6035
:1014F000002104233A72C370FFF7A8F8002800D037
:1015000077E7284B05221A703278002A00D15DE770
:1015100057E743467B6001233B706368A1683B82C9
:10152000204B79821A704CE7236962693B821C4B1D
:101530007A821A79002A02D11A7B002A05D02278F1
:10154000002A02D02A78002ACFD0164B03221A7024
:1015500037E716490A700022ECE60123F6E602237B
:10156000F4E613480222FB60002104233A72C370A0
:10157000FFF76CF8002800D03BE70A4B06221A70F0
:101580003278C2E7242E0020142E0020C02E002026
:10159000C12E00201C2E0020F02D00209D2E0020AA
:1015A0006C2E0020D42E0020182E00209C2E00200F
:1015B000AC2D0020A0DF7047A2DF7047A3DF70478B
:1015C000A4DF7047A6DF704710B582B0002808D0AE
:1015D000002906D00B88112B22D0502B03D0102BC2
:1015E0001BD002B010BD037D002BFAD0CA884389FE
:1015F0009A42F6D1CB8B022BF3D10368002BF0D0AB
:1016000021228A5C2024095D12020A4301210A403A
:101610004A4069460A709847E3E78B884382E0E7CF
:1016200001235B424382DCE7F0B55F465646444601
:101630004D46F0B4071C93B00E1C0E24002814D0A5
:10164000002912D00A6801235B42438202600A79B2
:10165000037405A901238B70634B0275021D0120E1
:101660000B80FFF7A7FF041E07D0201C13B03CBC63
:1016700090469946A246AB46F0BD3B7D002B00D07C
:1016800097E00BAC00211C22201CFAF7C1FD227848
:101690000223134323703A7D01211140DBB2102055
:1016A000090183430B43237000236360E3602361DC
:1016B000002A00D002AB63610023A3616A469B4607
:1016C00001239A469374494B0021138203A80322F5
:1016D000FAF79EFDB37B6A461373F37B06AD537333
:1016E000937B0622934302221343DBB208229343E7
:1016F0009146102293439046524693436A46937311
:10170000337B0021D370281C1422FAF781FD03AA31
:101710006A605A466A8104AB032206936A445346C0
:101720002B81AB812A61211CB888BB1D2A1CFFF7C5
:1017300043FF041E99D1B368002B52D06A4601239F
:1017400093742B4B0021138203A80322FAF760FD48
:10175000337C6A46137300235373937B06229343AF
:1017600002221343DBB24A46934342469343524616
:1017700093436A46937301AB181CB168984600F016
:10178000D5FD002181461422281CFAF741FD04AA48
:101790002A604A462A81AA8103AB42466C812A61AB
:1017A0006B603A1CF8880E32291CFFF707FF041CF7
:1017B0005BE702AC00210322201CFAF729FD227806
:1017C0000F239A4301210A4313401022134323702D
:1017D000737B06226370A378934302221343A370A2
:1017E0004FE7F88141E7C0460F180000192A0000B2
:1017F00008290000F0B589B06E46F171041C073667
:10180000002822D0027CCBB200259A421AD002AF27
:1018100000210822381CFAF7FBFC01237D803B8065
:101820007E60608AE1883A1CFFF7CAFE051E09D176
:101830003378628A2374114B9A4208D0237D08259D
:10184000002B06D1281C09B0F0BD0E25FAE70825AB
:10185000F8E704AD281C00211022FAF7D9FCE38830
:10186000291C2B800123AB707B88AF607F68AB8025
:10187000EF60608AFFF7A6FE051CE3E7FFFF0000AC
:10188000A0DF7047A2DF7047A5DF7047A6DF704773
:1018900010B50B8882B0112B28D022D9502B07D03D
:1018A000532B03D1CA88C3889A4223D002B010BDFB
:1018B000CA8843899A42F9D1CB8B022BF6D10368AF
:1018C000002BF3D021228A5C2024095D12021143EF
:1018D000490801224A4001210A4069460A70984796
:1018E000E4E7102BE2D18B88C382DFE701235B4260
:1018F000C382DBE702236A46137069460368984790
:10190000D4E7C046F0B55F46444656464D46F0B46F
:10191000804689460123096842465B4201604F4682
:10192000D3827B89A1B0138302A901228A709E4BC6
:1019300093464246043201200B80FFF7A1FF0126A7
:10194000041C071E07D0381C21B03CBC90469946A9
:10195000A246AB46F0BD6F46002103226846FAF767
:1019600057FC3A780F239A43324313401022134313
:101970003B700222BB78924606218B4357463B437D
:1019800069468B704A4613790FAD4B701C220021BB
:10199000281CFAF73DFC2A78202313432B7000AB58
:1019A0006B61824B6F465946B973BB8101AF002111
:1019B0000322381C6C60EC602C61AC61FAF728FCE7
:1019C000BB7806218B4352461343BB7049464B7983
:1019D000BA783B708B7916AC7B70E72313401E43BB
:1019E000BE7004AE00211422301CFAF711FC002155
:1019F0002222201CFAF70CFC03AA049277602289A9
:101A00000621615612050903120D0A436946293160
:101A100092B20A70120A4A70A2890A21615612050E
:101A20000903120D0A43694692B22B310A70120A59
:101A30000BA90A70228A0E21615612050903120DA4
:101A40000A4369462D3192B20A70120A4A706278CE
:101A500023780131002A00D08CE0092007270722D3
:101A6000A17800290FD0042213431A21A28B6156BA
:101A70001205120D090311430AAAD71989B2397048
:101A8000090A7970021CE178002906D00821A07F9C
:101A90000B430AAF511CB854CAB22179002909D0AE
:101AA000208C10210AAF0B43B91808700232000ACB
:101AB0004870D2B20AA90B700023738114233281BB
:101AC000B38131614246434690880633291C321C5B
